{
  "transactions": [
    {
      "hash": "0xac09563416b804d52cba3ba96cf59673f4d9dec48a2b4b4deef7da9cb8b9712c",
      "transactionType": "CREATE",
      "contractName": "NavOracle",
      "contractAddress": "0x810f9678cb16b02ff88a92c5989af45c426aa121",
      "function": null,
      "arguments": [
        "0xf9B8fc078197181C841c296C876945aaa425B278",
        "386",
        "0x66756e2d626173652d7365706f6c69612d310000000000000000000000000000",
        "\"const assetAddress = args[0] || '0xbDcfBEd3188040926bbEaBD70a25cFbE081F428d'; const CUSTODY_API = 'https://gar-apis-akhgun4t8-sarvagnakadiyas-projects.vercel.app'; const custodyRequest = Functions.makeHttpRequest({ url: `${CUSTODY_API}/getAssetPrice`, method: 'POST', headers: { 'Content-Type': 'application/json' }, data: { assetAddress } }); const response = await custodyRequest; if (response.error) { throw Error('Request failed'); } const price = response.data.price; return Functions.encodeUint256(price);\"",
        "\"const CUSTODY_API = 'https://gar-apis-akhgun4t8-sarvagnakadiyas-projects.vercel.app'; const response = await Functions.makeHttpRequest({ url: `${CUSTODY_API}/getTotalYield`, method: 'GET', headers: { 'Content-Type': 'application/json' } }); if (response.error) throw Error('Yield request failed'); return Functions.encodeUint256(response.data.totalYield);\"",
        "0x39ee4747908925f7e52767Bd26CD602e8C50Ce62"
      ],
      "transaction": {
        "from": "0x1312c13bdba3edfdd89706fc47653b0ded6c7b42",
        "gas": "0x392823",
        "value": "0x0",
        "input": "0x60a060405234801561001057600080fd5b5060405161286c38038061286c83398101604081905261002f91610259565b6001600160a01b038616608052600180546001600160401b0319166001600160401b038716179055600284905560036100688482610395565b5060046100758382610395565b50600580546001600160a01b0319166001600160a01b03831617905561009c6000336100d8565b506100c77fdf8b4c520ffe197c5343c6f5aec59570151ef9a492f2c624fd45ddde6135ec42336100d8565b505042600955506104539350505050565b6000828152602081815260408083206001600160a01b038516845290915281205460ff1661017a576000838152602081815260408083206001600160a01b03861684529091529020805460ff191660011790556101323390565b6001600160a01b0316826001600160a01b0316847f2f8788117e7eff1d82e926ec794901d17c78024a50270940304540a733656f0d60405160405180910390a450600161017e565b5060005b92915050565b80516001600160a01b038116811461019b57600080fd5b919050565b634e487b7160e01b600052604160045260246000fd5b600082601f8301126101c757600080fd5b81516001600160401b038111156101e0576101e06101a0565b604051601f8201601f19908116603f011681016001600160401b038111828210171561020e5761020e6101a0565b60405281815283820160200185101561022657600080fd5b60005b8281101561024557602081860181015183830182015201610229565b506000918101602001919091529392505050565b60008060008060008060c0878903121561027257600080fd5b61027b87610184565b60208801519096506001600160401b038116811461029857600080fd5b6040880151606089015191965094506001600160401b038111156102bb57600080fd5b6102c789828a016101b6565b608089015190945090506001600160401b038111156102e557600080fd5b6102f189828a016101b6565b92505061030060a08801610184565b90509295509295509295565b600181811c9082168061032057607f821691505b60208210810361034057634e487b7160e01b600052602260045260246000fd5b50919050565b601f82111561039057806000526020600020601f840160051c8101602085101561036d5750805b601f840160051c820191505b8181101561038d5760008155600101610379565b50505b505050565b81516001600160401b038111156103ae576103ae6101a0565b6103c2816103bc845461030c565b84610346565b6020601f8211600181146103f657600083156103de5750848201515b600019600385901b1c1916600184901b17845561038d565b600084815260208120601f198516915b828110156104265787850151825560209485019460019092019101610406565b50848210156104445786840151600019600387901b60f8161c191681555b50505050600190811b01905550565b6080516123f76104756000396000818161054901526114be01526123f76000f3fe608060405234801561001057600080fd5b50600436106101f05760003560e01c80638a4adf241161010f578063cf294d5e116100a2578063e462334711610071578063e462334714610493578063f00cab43146104a6578063f5553a61146104cd578063f60ce3c4146104f457600080fd5b8063cf294d5e1461043e578063d539139314610446578063d547741f1461046d578063db0a46e21461048057600080fd5b8063b2470e5c116100de578063b2470e5c146103f7578063b543503e146103ff578063bed74c8414610412578063c8f33c911461043557600080fd5b80638a4adf24146103c05780638dbe7b9d146103d357806391d14854146103dc578063a217fddf146103ef57600080fd5b806336568abe1161018757806365f3dca11161015657806365f3dca11461035457806367e828bf1461037b5780637aaf53e61461039057806389ac4147146103b757600080fd5b806336568abe1461031e5780634ab9ebb4146103315780634e1aa9ef146103395780635a109d1d1461034157600080fd5b80632795ad20116101c35780632795ad201461028e578063282c51f3146102cf5780632a0acc6a146102f65780632f2ff15d1461030b57600080fd5b806301ffc9a7146101f557806309c1ba2e1461021d5780630ca7617514610248578063248a9ca31461025d575b600080fd5b610208610203366004611be3565b610507565b60405190151581526020015b60405180910390f35b600154610230906001600160401b031681565b6040516001600160401b039091168152602001610214565b61025b610256366004611cce565b61053e565b005b61028061026b366004611d3e565b60009081526020819052604090206001015490565b604051908152602001610214565b6102b761029c366004611d3e565b6007602052600090815260409020546001600160a01b031681565b6040516001600160a01b039091168152602001610214565b6102807f3c11d16cbaffd01df69ce1c404f6340ee057498f5f00246190ea54220576a84881565b6102806000805160206123a283398151915281565b61025b610319366004611d6c565b6105c2565b61025b61032c366004611d6c565b6105ed565b61025b610625565b61025b610786565b61025b61034f366004611d9c565b610880565b6102807f9dbcece9015efd1c7df02e29f525d623fbf0c02265c5fb75781cfe09348d68e381565b6103836108c2565b6040516102149190611e67565b6102807f16dc53b3cf28c2b02b14673acc8879be1e6224dcbf181df0d67ea77671cbeeca81565b61028061070881565b6005546102b7906001600160a01b031681565b61028060025481565b6102086103ea366004611d6c565b610950565b610280600081565b610383610979565b61025b61040d366004611e7a565b610986565b610208610420366004611d3e565b60086020526000908152604090205460ff1681565b61028060095481565b6102806109c1565b6102807f9f2df0fed2c77648de5860a4cc508cd0818c85b8b8a1ab4ceeef8d981c8956a681565b61025b61047b366004611d6c565b610bdf565b61038361048e366004611e7a565b610c04565b6102806104a1366004611e7a565b610c1d565b6102807fd3eedd6d69d410e954f4c622838ecc3acae9fdcd83cad412075c85b09277065681565b6102807fa8a8f4780603bbbfdfebdc9931f6249304ac3cdca694b22384be7e118f92c8fd81565b61025b610502366004611e97565b610db0565b60006001600160e01b03198216637965db0b60e01b148061053857506301ffc9a760e01b6001600160e01b03198316145b92915050565b336001600160a01b037f000000000000000000000000000000000000000000000000000000000000000016146105875760405163c6829f8360e01b815260040160405180910390fd5b610592838383610dd4565b60405183907f85e1543bf2f84fe80c6badbce3648c8539ad1df4d2b3d822938ca0538be727e690600090a2505050565b6000828152602081905260409020600101546105dd8161103f565b6105e7838361104c565b50505050565b6001600160a01b03811633146106165760405163334bd91960e11b815260040160405180910390fd5b61062082826110de565b505050565b6107086009546106359190611ef5565b4210156106805760405162461bcd60e51b8152602060048201526014602482015273546f6f206561726c7920666f722075706461746560601b60448201526064015b60405180910390fd5b600554604080516306ecb81760e31b815290516000926001600160a01b031691633765c0b891600480830192869291908290030181865afa1580156106c9573d6000803e3d6000fd5b505050506040513d6000823e601f3d908101601f191682016040526106f19190810190611f08565b905060005b815181101561077e5760006006600084848151811061071757610717611fbf565b60200260200101516001600160a01b03166001600160a01b03168152602001908152602001600020805461074a90611fd5565b905011156107765761077482828151811061076757610767611fbf565b6020026020010151610c1d565b505b6001016106f6565b505042600955565b600554604080516306ecb81760e31b815290516000926001600160a01b031691633765c0b891600480830192869291908290030181865afa1580156107cf573d6000803e3d6000fd5b505050506040513d6000823e601f3d908101601f191682016040526107f79190810190611f08565b905060005b81518110156108775760006006600084848151811061081d5761081d611fbf565b60200260200101516001600160a01b03166001600160a01b03168152602001908152602001600020805461085090611fd5565b9050111561086f5761086d82828151811061076757610767611fbf565b505b6001016107fc565b5061077e6109c1565b6000805160206123a28339815191526108988161103f565b6001600160a01b03841660009081526006602052604090206108bb838583612056565b5050505050565b600380546108cf90611fd5565b80601f01602080910402602001604051908101604052809291908181526020018280546108fb90611fd5565b80156109485780601f1061091d57610100808354040283529160200191610948565b820191906000526020600020905b81548152906001019060200180831161092b57829003601f168201915b505050505081565b6000918252602082815260408084206001600160a01b0393909316845291905290205460ff1690565b600480546108cf90611fd5565b6000805160206123a283398151915261099e8161103f565b50600580546001600160a01b0319166001600160a01b0392909216919091179055565b600080600480546109d190611fd5565b905011610a175760405162461bcd60e51b8152602060048201526014602482015273165a595b19081cdbdd5c98d9481b9bdd081cd95d60621b6044820152606401610677565b610a586040805160e0810190915280600081526020016000815260200160008152602001606081526020016060815260200160608152602001606081525090565b610afa60008060048054610a6b90611fd5565b80601f0160208091040260200160405190810160405280929190818152602001828054610a9790611fd5565b8015610ae45780601f10610ab957610100808354040283529160200191610ae4565b820191906000526020600020905b815481529060010190602001808311610ac757829003601f168201915b505050505084611149909392919063ffffffff16565b604080516001808252818301909252600091816020015b6060815260200190600190039081610b115790505090506040518060400160405280600581526020016464756d6d7960d81b81525081600081518110610b5957610b59611fbf565b6020908102919091010152610b6e82826111c7565b610b96610b7a836111f1565b6001546002546001600160401b0390911690620493e0906114b9565b600081815260086020526040808220805460ff191660011790555191945084917fa6ac4d71c8189735b09ab681c65fd9350a2b69407ab2c25dc44ea86dd505d4aa9190a2505090565b600082815260208190526040902060010154610bfa8161103f565b6105e783836110de565b600660205260009081526040902080546108cf90611fd5565b6001600160a01b03811660009081526006602052604081208054829190610c4390611fd5565b905011610c895760405162461bcd60e51b8152602060048201526014602482015273105cdcd95d081b9bdd081c9959da5cdd195c995960621b6044820152606401610677565b610cca6040805160e0810190915280600081526020016000815260200160008152602001606081526020016060815260200160608152602001606081525090565b610cdd60008060038054610a6b90611fd5565b604080516001808252818301909252600091816020015b6060815260200190600190039081610cf4579050509050610d1f846001600160a01b0316601461158b565b81600081518110610d3257610d32611fbf565b6020908102919091010152610d4782826111c7565b610d53610b7a836111f1565b60008181526007602052604080822080546001600160a01b0319166001600160a01b03891690811790915590519295509185917ff024512984fa71067a7d61ce045c438634193942ad63784eb0fe76499e80f54a91a35050919050565b6000805160206123a2833981519152610dc88161103f565b60036106208382612115565b805115610df5578060405162461bcd60e51b81526004016106779190611e67565b60008381526008602052604090205460ff1615610ede5760008381526008602090815260408220805460ff191690558351610e379190850181019085016121d3565b90508015610e9e576005546040516376e1120b60e01b8152600481018390526001600160a01b03909116906376e1120b90602401600060405180830381600087803b158015610e8557600080fd5b505af1158015610e99573d6000803e3d6000fd5b505050505b837f6db2066d48a942fb324d55605e2038c0adb1b4f1f65c2a8f13d63f8653e3b97582604051610ed091815260200190565b60405180910390a250505050565b6000838152600760205260409020546001600160a01b0316610f365760405162461bcd60e51b815260206004820152601160248201527014995c5d595cdd081b9bdd08199bdd5b99607a1b6044820152606401610677565b6000838152600760209081526040822080546001600160a01b0319811690915584516001600160a01b039091169291610f7591860181019086016121d3565b90506000610f8b82670de0b6b3a76400006121ec565b600554604051631c2b190360e01b81526001600160a01b03868116600483015260248201849052929350911690631c2b190390604401600060405180830381600087803b158015610fdb57600080fd5b505af1158015610fef573d6000803e3d6000fd5b50505050826001600160a01b0316867f6fb5b564450c211a6d50095662a64ca2c6b0db85f8d5df73eee89bcd7ffd389a8460405161102f91815260200190565b60405180910390a3505050505050565b611049813361170a565b50565b60006110588383610950565b6110d6576000838152602081815260408083206001600160a01b03861684529091529020805460ff1916600117905561108e3390565b6001600160a01b0316826001600160a01b0316847f2f8788117e7eff1d82e926ec794901d17c78024a50270940304540a733656f0d60405160405180910390a4506001610538565b506000610538565b60006110ea8383610950565b156110d6576000838152602081815260408083206001600160a01b0386168085529252808320805460ff1916905551339286917ff6391f5c32d9c69d2a47ea670b442974b53935d1edc7fd64eb21e047a839171b9190a4506001610538565b805160000361116b576040516322ce3edd60e01b815260040160405180910390fd5b8383600281111561117e5761117e612203565b9081600281111561119157611191612203565b905250604084018280156111a7576111a7612203565b908180156111b7576111b7612203565b9052506060909301929092525050565b80516000036111e95760405163fe936cb760e01b815260040160405180910390fd5b60a090910152565b60606000611200610100611747565b90506112396040518060400160405280600c81526020016b31b7b232a637b1b0ba34b7b760a11b8152508261176890919063ffffffff16565b825161125790600281111561125057611250612203565b8290611781565b6040805180820190915260088152676c616e677561676560c01b6020820152611281908290611768565b604083015161129890801561125057611250612203565b604080518082019091526006815265736f7572636560d01b60208201526112c0908290611768565b60608301516112d0908290611768565b60a0830151511561135c576040805180820190915260048152636172677360e01b6020820152611301908290611768565b61130a816117ba565b60005b8360a00151518110156113525761134a8460a00151828151811061133357611333611fbf565b60200260200101518361176890919063ffffffff16565b60010161130d565b5061135c816117de565b608083015151156114205760008360200151600281111561137f5761137f612203565b0361139d5760405163a80d31f760e01b815260040160405180910390fd5b60408051808201909152600f81526e39b2b1b932ba39a637b1b0ba34b7b760891b60208201526113ce908290611768565b6113e78360200151600281111561125057611250612203565b6040805180820190915260078152667365637265747360c81b6020820152611410908290611768565b60808301516114209082906117fc565b60c083015151156114b15760408051808201909152600981526862797465734172677360b81b6020820152611456908290611768565b61145f816117ba565b60005b8360c00151518110156114a75761149f8460c00151828151811061148857611488611fbf565b6020026020010151836117fc90919063ffffffff16565b600101611462565b506114b1816117de565b515192915050565b6000807f00000000000000000000000000000000000000000000000000000000000000006001600160a01b031663461d27628688600188886040518663ffffffff1660e01b8152600401611511959493929190612219565b6020604051808303816000875af1158015611530573d6000803e3d6000fd5b505050506040513d601f19601f8201168201806040525081019061155491906121d3565b60405190915081907f1131472297a800fee664d1d89cfa8f7676ff07189ecc53f80bbb5f4969099db890600090a295945050505050565b606082600061159b8460026121ec565b6115a6906002611ef5565b6001600160401b038111156115bd576115bd611c0d565b6040519080825280601f01601f1916602001820160405280156115e7576020820181803683370190505b509050600360fc1b8160008151811061160257611602611fbf565b60200101906001600160f81b031916908160001a905350600f60fb1b8160018151811061163157611631611fbf565b60200101906001600160f81b031916908160001a90535060006116558560026121ec565b611660906001611ef5565b90505b60018111156116d8576f181899199a1a9b1b9c1cb0b131b232b360811b83600f166010811061169457611694611fbf565b1a60f81b8282815181106116aa576116aa611fbf565b60200101906001600160f81b031916908160001a90535060049290921c916116d181612262565b9050611663565b5081156117025760405163e22e27eb60e01b81526004810186905260248101859052604401610677565b949350505050565b6117148282610950565b6117435760405163e2517d3f60e01b81526001600160a01b038216600482015260248101839052604401610677565b5050565b61174f611bae565b805161175b9083611809565b5060006020820152919050565b6117758260038351611880565b81516106209082611999565b815161178e9060c26119c1565b5061174382826040516020016117a691815260200190565b6040516020818303038152906040526117fc565b6117c5816004611a2a565b6001816020018181516117d89190611ef5565b90525050565b6117e9816007611a2a565b6001816020018181516117d89190612279565b6117758260028351611880565b60408051808201909152606081526000602082015261182960208361228c565b156118515761183960208361228c565b611844906020612279565b61184e9083611ef5565b91505b60208084018390526040518085526000815290818401018181101561187557600080fd5b604052509192915050565b6017816001600160401b0316116118a65782516105e79060e0600585901b1683176119c1565b60ff816001600160401b0316116118e65782516118ce906018611fe0600586901b16176119c1565b5082516105e7906001600160401b0383166001611a41565b61ffff816001600160401b03161161192757825161190f906019611fe0600586901b16176119c1565b5082516105e7906001600160401b0383166002611a41565b63ffffffff816001600160401b03161161196a57825161195290601a611fe0600586901b16176119c1565b5082516105e7906001600160401b0383166004611a41565b825161198190601b611fe0600586901b16176119c1565b5082516105e7906001600160401b0383166008611a41565b6040805180820190915260608152600060208201526119ba83838451611ac6565b9392505050565b60408051808201909152606081526000602082015282515160006119e6826001611ef5565b905084602001518210611a0757611a0785611a028360026121ec565b611b97565b8451602083820101858153508051821115611a20578181525b5093949350505050565b815161062090601f611fe0600585901b16176119c1565b6040805180820190915260608152600060208201528351516000611a658285611ef5565b90508560200151811115611a8257611a8286611a028360026121ec565b60006001611a9286610100612395565b611a9c9190612279565b90508651828101878319825116178152508051831115611aba578281525b50959695505050505050565b6040805180820190915260608152600060208201528251821115611ae957600080fd5b8351516000611af88483611ef5565b90508560200151811115611b1557611b1586611a028360026121ec565b855180518382016020019160009180851115611b2f578482525b505050602086015b60208610611b6f5780518252611b4e602083611ef5565b9150611b5b602082611ef5565b9050611b68602087612279565b9550611b37565b51815160001960208890036101000a0190811690199190911617905250849150509392505050565b8151611ba38383611809565b506105e78382611999565b6040518060400160405280611bd6604051806040016040528060608152602001600081525090565b8152602001600081525090565b600060208284031215611bf557600080fd5b81356001600160e01b0319811681146119ba57600080fd5b634e487b7160e01b600052604160045260246000fd5b604051601f8201601f191681016001600160401b0381118282101715611c4b57611c4b611c0d565b604052919050565b6000806001600160401b03841115611c6d57611c6d611c0d565b50601f8301601f1916602001611c8281611c23565b915050828152838383011115611c9757600080fd5b828260208301376000602084830101529392505050565b600082601f830112611cbf57600080fd5b6119ba83833560208501611c53565b600080600060608486031215611ce357600080fd5b8335925060208401356001600160401b03811115611d0057600080fd5b611d0c86828701611cae565b92505060408401356001600160401b03811115611d2857600080fd5b611d3486828701611cae565b9150509250925092565b600060208284031215611d5057600080fd5b5035919050565b6001600160a01b038116811461104957600080fd5b60008060408385031215611d7f57600080fd5b823591506020830135611d9181611d57565b809150509250929050565b600080600060408486031215611db157600080fd5b8335611dbc81611d57565b925060208401356001600160401b03811115611dd757600080fd5b8401601f81018613611de857600080fd5b80356001600160401b03811115611dfe57600080fd5b866020828401011115611e1057600080fd5b939660209190910195509293505050565b6000815180845260005b81811015611e4757602081850181015186830182015201611e2b565b506000602082860101526020601f19601f83011685010191505092915050565b6020815260006119ba6020830184611e21565b600060208284031215611e8c57600080fd5b81356119ba81611d57565b600060208284031215611ea957600080fd5b81356001600160401b03811115611ebf57600080fd5b8201601f81018413611ed057600080fd5b61170284823560208401611c53565b634e487b7160e01b600052601160045260246000fd5b8082018082111561053857610538611edf565b600060208284031215611f1a57600080fd5b81516001600160401b03811115611f3057600080fd5b8201601f81018413611f4157600080fd5b80516001600160401b03811115611f5a57611f5a611c0d565b8060051b611f6a60208201611c23565b91825260208184018101929081019087841115611f8657600080fd5b6020850194505b83851015611fb45784519250611fa283611d57565b82825260209485019490910190611f8d565b979650505050505050565b634e487b7160e01b600052603260045260246000fd5b600181811c90821680611fe957607f821691505b60208210810361200957634e487b7160e01b600052602260045260246000fd5b50919050565b601f82111561062057806000526020600020601f840160051c810160208510156120365750805b601f840160051c820191505b818110156108bb5760008155600101612042565b6001600160401b0383111561206d5761206d611c0d565b6120818361207b8354611fd5565b8361200f565b6000601f8411600181146120b5576000851561209d5750838201355b600019600387901b1c1916600186901b1783556108bb565b600083815260209020601f19861690835b828110156120e657868501358255602094850194600190920191016120c6565b50868210156121035760001960f88860031b161c19848701351681555b505060018560011b0183555050505050565b81516001600160401b0381111561212e5761212e611c0d565b6121428161213c8454611fd5565b8461200f565b6020601f821160018114612176576000831561215e5750848201515b600019600385901b1c1916600184901b1784556108bb565b600084815260208120601f198516915b828110156121a65787850151825560209485019460019092019101612186565b50848210156121c45786840151600019600387901b60f8161c191681555b50505050600190811b01905550565b6000602082840312156121e557600080fd5b5051919050565b808202811582820484141761053857610538611edf565b634e487b7160e01b600052602160045260246000fd5b6001600160401b038616815260a06020820152600061223b60a0830187611e21565b61ffff9590951660408301525063ffffffff92909216606083015260809091015292915050565b60008161227157612271611edf565b506000190190565b8181038181111561053857610538611edf565b6000826122a957634e487b7160e01b600052601260045260246000fd5b500690565b6001815b60018411156122e9578085048111156122cd576122cd611edf565b60018416156122db57908102905b60019390931c9280026122b2565b935093915050565b60008261230057506001610538565b8161230d57506000610538565b8160018114612323576002811461232d57612349565b6001915050610538565b60ff84111561233e5761233e611edf565b50506001821b610538565b5060208310610133831016604e8410600b841016171561236c575081810a610538565b61237960001984846122ae565b806000190482111561238d5761238d611edf565b029392505050565b60006119ba83836122f156fedf8b4c520ffe197c5343c6f5aec59570151ef9a492f2c624fd45ddde6135ec42a26469706673582212202b21ba351f037d55af446e812967ac5b1f96865cebd239ead33226ec1e57642764736f6c634300081e0033000000000000000000000000f9b8fc078197181c841c296c876945aaa425b278000000000000000000000000000000000000000000000000000000000000018266756e2d626173652d7365706f6c69612d31000000000000000000000000000000000000000000000000000000000000000000000000000000000000000000c000000000000000000000000000000000000000000000000000000000000002e000000000000000000000000039ee4747908925f7e52767bd26cd602e8c50ce6200000000000000000000000000000000000000000000000000000000000001ff636f6e737420617373657441646472657373203d20617267735b305d207c7c2027307862446366424564333138383034303932366262456142443730613235634662453038314634323864273b20636f6e737420435553544f44595f415049203d202768747470733a2f2f6761722d617069732d616b6867756e3474382d7361727661676e616b6164697961732d70726f6a656374732e76657263656c2e617070273b20636f6e737420637573746f647952657175657374203d2046756e6374696f6e732e6d616b654874747052657175657374287b2075726c3a2060247b435553544f44595f4150497d2f67657441737365745072696365602c206d6574686f643a2027504f5354272c20686561646572733a207b2027436f6e74656e742d54797065273a20276170706c69636174696f6e2f6a736f6e27207d2c20646174613a207b20617373657441646472657373207d207d293b20636f6e737420726573706f6e7365203d20617761697420637573746f6479526571756573743b2069662028726573706f6e73652e6572726f7229207b207468726f77204572726f72282752657175657374206661696c656427293b207d20636f6e7374207072696365203d20726573706f6e73652e646174612e70726963653b2072657475726e2046756e6374696f6e732e656e636f646555696e74323536287072696365293b000000000000000000000000000000000000000000000000000000000000000163636f6e737420435553544f44595f415049203d202768747470733a2f2f6761722d617069732d616b6867756e3474382d7361727661676e616b6164697961732d70726f6a656374732e76657263656c2e617070273b20636f6e737420726573706f6e7365203d2061776169742046756e6374696f6e732e6d616b654874747052657175657374287b2075726c3a2060247b435553544f44595f4150497d2f676574546f74616c5969656c64602c206d6574686f643a2027474554272c20686561646572733a207b2027436f6e74656e742d54797065273a20276170706c69636174696f6e2f6a736f6e27207d207d293b2069662028726573706f6e73652e6572726f7229207468726f77204572726f7228275969656c642072657175657374206661696c656427293b2072657475726e2046756e6374696f6e732e656e636f646555696e7432353628726573706f6e73652e646174612e746f74616c5969656c64293b0000000000000000000000000000000000000000000000000000000000",
        "nonce": "0x32c",
        "chainId": "0x14a34"
      },
      "additionalContracts": [],
      "isFixedGasLimit": false
    },
    {
      "hash": "0xc06470df369f917caccec549a1279a1a4ae0cbae22ac09b34e9da396652377a3",
      "transactionType": "CALL",
      "contractName": "VaultManager",
      "contractAddress": "0x39ee4747908925f7e52767bd26cd602e8c50ce62",
      "function": "grantSentinelRole(address)",
      "arguments": [
        "0x810F9678cB16b02FF88a92C5989aF45C426aa121"
      ],
      "transaction": {
        "from": "0x1312c13bdba3edfdd89706fc47653b0ded6c7b42",
        "to": "0x39ee4747908925f7e52767bd26cd602e8c50ce62",
        "gas": "0x107c2",
        "value": "0x0",
        "input": "0x69245ad7000000000000000000000000810f9678cb16b02ff88a92c5989af45c426aa121",
        "nonce": "0x32d",
        "chainId": "0x14a34"
      },
      "additionalContracts": [],
      "isFixedGasLimit": false
    },
    {
      "hash": "0x2f3b3ca060a15f197e3071c7e9d0f46134baa3b59abdaa791491373b2302de54",
      "transactionType": "CALL",
      "contractName": "VaultManager",
      "contractAddress": "0x39ee4747908925f7e52767bd26cd602e8c50ce62",
      "function": "addAsset(address,uint256)",
      "arguments": [
        "0x3dbb0344f6C2Fe6122179Cc3795A3eB10Be458dc",
        "500"
      ],
      "transaction": {
        "from": "0x1312c13bdba3edfdd89706fc47653b0ded6c7b42",
        "to": "0x39ee4747908925f7e52767bd26cd602e8c50ce62",
        "gas": "0x15382",
        "value": "0x0",
        "input": "0x66a6a4bd0000000000000000000000003dbb0344f6c2fe6122179cc3795a3eb10be458dc00000000000000000000000000000000000000000000000000000000000001f4",
        "nonce": "0x32e",
        "chainId": "0x14a34"
      },
      "additionalContracts": [],
      "isFixedGasLimit": false
    },
    {
      "hash": "0x51103542bf05170f8dad3c3f212786697b133f41ab57db77adc85bcf06f45ad0",
      "transactionType": "CALL",
      "contractName": "VaultManager",
      "contractAddress": "0x39ee4747908925f7e52767bd26cd602e8c50ce62",
      "function": "addAsset(address,uint256)",
      "arguments": [
        "0x50F3660D13E12eb9cAb75df95305B404E6d2d506",
        "1000"
      ],
      "transaction": {
        "from": "0x1312c13bdba3edfdd89706fc47653b0ded6c7b42",
        "to": "0x39ee4747908925f7e52767bd26cd602e8c50ce62",
        "gas": "0x15382",
        "value": "0x0",
        "input": "0x66a6a4bd00000000000000000000000050f3660d13e12eb9cab75df95305b404e6d2d50600000000000000000000000000000000000000000000000000000000000003e8",
        "nonce": "0x32f",
        "chainId": "0x14a34"
      },
      "additionalContracts": [],
      "isFixedGasLimit": false
    },
    {
      "hash": "0xfb61c8805be22c08ed13a4f62b1738a4679affa10ec9c641e6537ca754191c2d",
      "transactionType": "CALL",
      "contractName": "VaultManager",
      "contractAddress": "0x39ee4747908925f7e52767bd26cd602e8c50ce62",
      "function": "addAsset(address,uint256)",
      "arguments": [
        "0x69617a40EA29Aabc6BCd151865cfC62e30b67012",
        "200"
      ],
      "transaction": {
        "from": "0x1312c13bdba3edfdd89706fc47653b0ded6c7b42",
        "to": "0x39ee4747908925f7e52767bd26cd602e8c50ce62",
        "gas": "0x1676a",
        "value": "0x0",
        "input": "0x66a6a4bd00000000000000000000000069617a40ea29aabc6bcd151865cfc62e30b6701200000000000000000000000000000000000000000000000000000000000000c8",
        "nonce": "0x330",
        "chainId": "0x14a34"
      },
      "additionalContracts": [],
      "isFixedGasLimit": false
    },
    {
      "hash": "0x325d86af590242955afa8203454da5d83e10f999e10fee7b3d10754ea1cd611f",
      "transactionType": "CALL",
      "contractName": "NavOracle",
      "contractAddress": "0x810f9678cb16b02ff88a92c5989af45c426aa121",
      "function": "addAsset(address,string)",
      "arguments": [
        "0x3dbb0344f6C2Fe6122179Cc3795A3eB10Be458dc",
        "\"INR-SGB\""
      ],
      "transaction": {
        "from": "0x1312c13bdba3edfdd89706fc47653b0ded6c7b42",
        "to": "0x810f9678cb16b02ff88a92c5989af45c426aa121",
        "gas": "0x10f94",
        "value": "0x0",
        "input": "0x5a109d1d0000000000000000000000003dbb0344f6c2fe6122179cc3795a3eb10be458dc00000000000000000000000000000000000000000000000000000000000000400000000000000000000000000000000000000000000000000000000000000007494e522d53474200000000000000000000000000000000000000000000000000",
        "nonce": "0x331",
        "chainId": "0x14a34"
      },
      "additionalContracts": [],
      "isFixedGasLimit": false
    },
    {
      "hash": "0xb40aa321ea89f620db1a84fab2140daf045272fb4783f6a992dbe48efa09582d",
      "transactionType": "CALL",
      "contractName": "NavOracle",
      "contractAddress": "0x810f9678cb16b02ff88a92c5989af45c426aa121",
      "function": "addAsset(address,string)",
      "arguments": [
        "0x50F3660D13E12eb9cAb75df95305B404E6d2d506",
        "\"INR-CORP\""
      ],
      "transaction": {
        "from": "0x1312c13bdba3edfdd89706fc47653b0ded6c7b42",
        "to": "0x810f9678cb16b02ff88a92c5989af45c426aa121",
        "gas": "0x1008d",
        "value": "0x0",
        "input": "0x5a109d1d00000000000000000000000050f3660d13e12eb9cab75df95305b404e6d2d50600000000000000000000000000000000000000000000000000000000000000400000000000000000000000000000000000000000000000000000000000000008494e522d434f5250000000000000000000000000000000000000000000000000",
        "nonce": "0x332",
        "chainId": "0x14a34"
      },
      "additionalContracts": [],
      "isFixedGasLimit": false
    },
    {
      "hash": "0xcbd0b1ef96f19d3b31ac723c39e3ab2d00240a25cd6ef1544ef55385018e8ab6",
      "transactionType": "CALL",
      "contractName": "NavOracle",
      "contractAddress": "0x810f9678cb16b02ff88a92c5989af45c426aa121",
      "function": "addAsset(address,string)",
      "arguments": [
        "0x69617a40EA29Aabc6BCd151865cfC62e30b67012",
        "\"INR-MFD\""
      ],
      "transaction": {
        "from": "0x1312c13bdba3edfdd89706fc47653b0ded6c7b42",
        "to": "0x810f9678cb16b02ff88a92c5989af45c426aa121",
        "gas": "0x10f94",
        "value": "0x0",
        "input": "0x5a109d1d00000000000000000000000069617a40ea29aabc6bcd151865cfc62e30b6701200000000000000000000000000000000000000000000000000000000000000400000000000000000000000000000000000000000000000000000000000000007494e522d4d464400000000000000000000000000000000000000000000000000",
        "nonce": "0x333",
        "chainId": "0x14a34"
      },
      "additionalContracts": [],
      "isFixedGasLimit": false
    }
  ],
  "receipts": [
    {
      "status": "0x1",
      "cumulativeGasUsed": "0xfb21d6",
      "logs": [
        {
          "address": "0x810f9678cb16b02ff88a92c5989af45c426aa121",
          "topics": [
            "0x2f8788117e7eff1d82e926ec794901d17c78024a50270940304540a733656f0d",
            "0x0000000000000000000000000000000000000000000000000000000000000000",
            "0x0000000000000000000000001312c13bdba3edfdd89706fc47653b0ded6c7b42",
            "0x0000000000000000000000001312c13bdba3edfdd89706fc47653b0ded6c7b42"
          ],
          "data": "0x",
          "blockHash": "0x8b8b03a94d3a10aaf42f3fe0de8f95fe7d2bad4b324cb832271bf48c71850c38",
          "blockNumber": "0x1a704c1",
          "blockTimestamp": "0x68616862",
          "transactionHash": "0xac09563416b804d52cba3ba96cf59673f4d9dec48a2b4b4deef7da9cb8b9712c",
          "transactionIndex": "0x26",
          "logIndex": "0x15e",
          "removed": false
        },
        {
          "address": "0x810f9678cb16b02ff88a92c5989af45c426aa121",
          "topics": [
            "0x2f8788117e7eff1d82e926ec794901d17c78024a50270940304540a733656f0d",
            "0xdf8b4c520ffe197c5343c6f5aec59570151ef9a492f2c624fd45ddde6135ec42",
            "0x0000000000000000000000001312c13bdba3edfdd89706fc47653b0ded6c7b42",
            "0x0000000000000000000000001312c13bdba3edfdd89706fc47653b0ded6c7b42"
          ],
          "data": "0x",
          "blockHash": "0x8b8b03a94d3a10aaf42f3fe0de8f95fe7d2bad4b324cb832271bf48c71850c38",
          "blockNumber": "0x1a704c1",
          "blockTimestamp": "0x68616862",
          "transactionHash": "0xac09563416b804d52cba3ba96cf59673f4d9dec48a2b4b4deef7da9cb8b9712c",
          "transactionIndex": "0x26",
          "logIndex": "0x15f",
          "removed": false
        }
      ],
      "logsBloom": "0x00000004000000000000000000000000000000080000000000000000000000200000000000000000000000000000000000000000000000000000000000000000000000000000000000000000000000000000000000000000000000000000000000000000020000000000008000000900000000000000000000000000000000000000000000000000000000000000000000000000000000000000000000000000000000000000000000000000101000000000000000000000001000000000000000000000000000000000000000000000000000000000000100000000000020000000000000100000000000000000010000000000000000000000040000000000",
      "type": "0x2",
      "transactionHash": "0xac09563416b804d52cba3ba96cf59673f4d9dec48a2b4b4deef7da9cb8b9712c",
      "transactionIndex": "0x26",
      "blockHash": "0x8b8b03a94d3a10aaf42f3fe0de8f95fe7d2bad4b324cb832271bf48c71850c38",
      "blockNumber": "0x1a704c1",
      "gasUsed": "0x2bfa4e",
      "effectiveGasPrice": "0xf42c2",
      "from": "0x1312c13bdba3edfdd89706fc47653b0ded6c7b42",
      "to": null,
      "contractAddress": "0x810f9678cb16b02ff88a92c5989af45c426aa121",
      "l1BaseFeeScalar": "0x44d",
      "l1BlobBaseFee": "0x1",
      "l1BlobBaseFeeScalar": "0xa118b",
      "l1Fee": "0x4a88ad14",
      "l1GasPrice": "0xa62cbc",
      "l1GasUsed": "0x19761"
    },
    {
      "status": "0x1",
      "cumulativeGasUsed": "0xfbe0cb",
      "logs": [
        {
          "address": "0x39ee4747908925f7e52767bd26cd602e8c50ce62",
          "topics": [
            "0x2f8788117e7eff1d82e926ec794901d17c78024a50270940304540a733656f0d",
            "0xd3eedd6d69d410e954f4c622838ecc3acae9fdcd83cad412075c85b092770656",
            "0x000000000000000000000000810f9678cb16b02ff88a92c5989af45c426aa121",
            "0x0000000000000000000000001312c13bdba3edfdd89706fc47653b0ded6c7b42"
          ],
          "data": "0x",
          "blockHash": "0x8b8b03a94d3a10aaf42f3fe0de8f95fe7d2bad4b324cb832271bf48c71850c38",
          "blockNumber": "0x1a704c1",
          "blockTimestamp": "0x68616862",
          "transactionHash": "0xc06470df369f917caccec549a1279a1a4ae0cbae22ac09b34e9da396652377a3",
          "transactionIndex": "0x27",
          "logIndex": "0x160",
          "removed": false
        }
      ],
      "logsBloom": "0x00000004000000000000000000000000000000000000000000000000000000004000000000000000000000000000000000000000000000000000000000000000000000000000000000000000000000000000000000000000000000008020000000000000000000000000000000000000000000000000080000000000000000000800000000000000000000000000000000000000000000000000000000000000000000000000000000000000000000000000000000000000001000000100000000000000000000000000000400000000000000000000000100000000000000000040000000108000000000000000010000000000000000000000040000000000",
      "type": "0x2",
      "transactionHash": "0xc06470df369f917caccec549a1279a1a4ae0cbae22ac09b34e9da396652377a3",
      "transactionIndex": "0x27",
      "blockHash": "0x8b8b03a94d3a10aaf42f3fe0de8f95fe7d2bad4b324cb832271bf48c71850c38",
      "blockNumber": "0x1a704c1",
      "gasUsed": "0xbef5",
      "effectiveGasPrice": "0xf42c2",
      "from": "0x1312c13bdba3edfdd89706fc47653b0ded6c7b42",
      "to": "0x39ee4747908925f7e52767bd26cd602e8c50ce62",
      "contractAddress": null,
      "l1BaseFeeScalar": "0x44d",
      "l1BlobBaseFee": "0x1",
      "l1BlobBaseFeeScalar": "0xa118b",
      "l1Fee": "0x124bc03",
      "l1GasPrice": "0xa62cbc",
      "l1GasUsed": "0x640"
    },
    {
      "status": "0x1",
      "cumulativeGasUsed": "0xfcd698",
      "logs": [],
      "logsBloom": "0x00000000000000000000000000000000000000000000000000000000000000000000000000000000000000000000000000000000000000000000000000000000000000000000000000000000000000000000000000000000000000000000000000000000000000000000000000000000000000000000000000000000000000000000000000000000000000000000000000000000000000000000000000000000000000000000000000000000000000000000000000000000000000000000000000000000000000000000000000000000000000000000000000000000000000000000000000000000000000000000000000000000000000000000000000000000",
      "type": "0x2",
      "transactionHash": "0x2f3b3ca060a15f197e3071c7e9d0f46134baa3b59abdaa791491373b2302de54",
      "transactionIndex": "0x28",
      "blockHash": "0x8b8b03a94d3a10aaf42f3fe0de8f95fe7d2bad4b324cb832271bf48c71850c38",
      "blockNumber": "0x1a704c1",
      "gasUsed": "0xf5cd",
      "effectiveGasPrice": "0xf42c2",
      "from": "0x1312c13bdba3edfdd89706fc47653b0ded6c7b42",
      "to": "0x39ee4747908925f7e52767bd26cd602e8c50ce62",
      "contractAddress": null,
      "l1BaseFeeScalar": "0x44d",
      "l1BlobBaseFee": "0x1",
      "l1BlobBaseFeeScalar": "0xa118b",
      "l1Fee": "0x124bc03",
      "l1GasPrice": "0xa62cbc",
      "l1GasUsed": "0x640"
    },
    {
      "status": "0x1",
      "cumulativeGasUsed": "0xfdcc65",
      "logs": [],
      "logsBloom": "0x00000000000000000000000000000000000000000000000000000000000000000000000000000000000000000000000000000000000000000000000000000000000000000000000000000000000000000000000000000000000000000000000000000000000000000000000000000000000000000000000000000000000000000000000000000000000000000000000000000000000000000000000000000000000000000000000000000000000000000000000000000000000000000000000000000000000000000000000000000000000000000000000000000000000000000000000000000000000000000000000000000000000000000000000000000000",
      "type": "0x2",
      "transactionHash": "0x51103542bf05170f8dad3c3f212786697b133f41ab57db77adc85bcf06f45ad0",
      "transactionIndex": "0x29",
      "blockHash": "0x8b8b03a94d3a10aaf42f3fe0de8f95fe7d2bad4b324cb832271bf48c71850c38",
      "blockNumber": "0x1a704c1",
      "gasUsed": "0xf5cd",
      "effectiveGasPrice": "0xf42c2",
      "from": "0x1312c13bdba3edfdd89706fc47653b0ded6c7b42",
      "to": "0x39ee4747908925f7e52767bd26cd602e8c50ce62",
      "contractAddress": null,
      "l1BaseFeeScalar": "0x44d",
      "l1BlobBaseFee": "0x1",
      "l1BlobBaseFeeScalar": "0xa118b",
      "l1Fee": "0x124bc03",
      "l1GasPrice": "0xa62cbc",
      "l1GasUsed": "0x640"
    },
    {
      "status": "0x1",
      "cumulativeGasUsed": "0xfec226",
      "logs": [],
      "logsBloom": "0x00000000000000000000000000000000000000000000000000000000000000000000000000000000000000000000000000000000000000000000000000000000000000000000000000000000000000000000000000000000000000000000000000000000000000000000000000000000000000000000000000000000000000000000000000000000000000000000000000000000000000000000000000000000000000000000000000000000000000000000000000000000000000000000000000000000000000000000000000000000000000000000000000000000000000000000000000000000000000000000000000000000000000000000000000000000",
      "type": "0x2",
      "transactionHash": "0xfb61c8805be22c08ed13a4f62b1738a4679affa10ec9c641e6537ca754191c2d",
      "transactionIndex": "0x2a",
      "blockHash": "0x8b8b03a94d3a10aaf42f3fe0de8f95fe7d2bad4b324cb832271bf48c71850c38",
      "blockNumber": "0x1a704c1",
      "gasUsed": "0xf5c1",
      "effectiveGasPrice": "0xf42c2",
      "from": "0x1312c13bdba3edfdd89706fc47653b0ded6c7b42",
      "to": "0x39ee4747908925f7e52767bd26cd602e8c50ce62",
      "contractAddress": null,
      "l1BaseFeeScalar": "0x44d",
      "l1BlobBaseFee": "0x1",
      "l1BlobBaseFeeScalar": "0xa118b",
      "l1Fee": "0x124bc03",
      "l1GasPrice": "0xa62cbc",
      "l1GasUsed": "0x640"
    },
    {
      "status": "0x1",
      "cumulativeGasUsed": "0x62528",
      "logs": [],
      "logsBloom": "0x00000000000000000000000000000000000000000000000000000000000000000000000000000000000000000000000000000000000000000000000000000000000000000000000000000000000000000000000000000000000000000000000000000000000000000000000000000000000000000000000000000000000000000000000000000000000000000000000000000000000000000000000000000000000000000000000000000000000000000000000000000000000000000000000000000000000000000000000000000000000000000000000000000000000000000000000000000000000000000000000000000000000000000000000000000000",
      "type": "0x2",
      "transactionHash": "0x325d86af590242955afa8203454da5d83e10f999e10fee7b3d10754ea1cd611f",
      "transactionIndex": "0x5",
      "blockHash": "0x5bde4d27dab3e923bd33b93ad5023daa0bf97cc94fd79d4f880bdcef0e54e861",
      "blockNumber": "0x1a704c2",
      "gasUsed": "0xb9b2",
      "effectiveGasPrice": "0xf4342",
      "from": "0x1312c13bdba3edfdd89706fc47653b0ded6c7b42",
      "to": "0x810f9678cb16b02ff88a92c5989af45c426aa121",
      "contractAddress": null,
      "l1BaseFeeScalar": "0x44d",
      "l1BlobBaseFee": "0x1",
      "l1BlobBaseFeeScalar": "0xa118b",
      "l1Fee": "0x134c2e8",
      "l1GasPrice": "0xa62cbc",
      "l1GasUsed": "0x697"
    },
    {
      "status": "0x1",
      "cumulativeGasUsed": "0x6dee6",
      "logs": [],
      "logsBloom": "0x00000000000000000000000000000000000000000000000000000000000000000000000000000000000000000000000000000000000000000000000000000000000000000000000000000000000000000000000000000000000000000000000000000000000000000000000000000000000000000000000000000000000000000000000000000000000000000000000000000000000000000000000000000000000000000000000000000000000000000000000000000000000000000000000000000000000000000000000000000000000000000000000000000000000000000000000000000000000000000000000000000000000000000000000000000000",
      "type": "0x2",
      "transactionHash": "0xb40aa321ea89f620db1a84fab2140daf045272fb4783f6a992dbe48efa09582d",
      "transactionIndex": "0x6",
      "blockHash": "0x1e811091e8913e9ede56e94834e1d4639e7df760a238888b9693b6886dc68f6a",
      "blockNumber": "0x1a704c2",
      "gasUsed": "0xb9be",
      "effectiveGasPrice": "0xf4342",
      "from": "0x1312c13bdba3edfdd89706fc47653b0ded6c7b42",
      "to": "0x810f9678cb16b02ff88a92c5989af45c426aa121",
      "contractAddress": null,
      "l1BaseFeeScalar": "0x44d",
      "l1BlobBaseFee": "0x1",
      "l1BlobBaseFeeScalar": "0xa118b",
      "l1Fee": "0x13735c7",
      "l1GasPrice": "0xa62cbc",
      "l1GasUsed": "0x6a4"
    },
    {
      "status": "0x1",
      "cumulativeGasUsed": "0x120609",
      "logs": [],
      "logsBloom": "0x00000000000000000000000000000000000000000000000000000000000000000000000000000000000000000000000000000000000000000000000000000000000000000000000000000000000000000000000000000000000000000000000000000000000000000000000000000000000000000000000000000000000000000000000000000000000000000000000000000000000000000000000000000000000000000000000000000000000000000000000000000000000000000000000000000000000000000000000000000000000000000000000000000000000000000000000000000000000000000000000000000000000000000000000000000000",
      "type": "0x2",
      "transactionHash": "0xcbd0b1ef96f19d3b31ac723c39e3ab2d00240a25cd6ef1544ef55385018e8ab6",
      "transactionIndex": "0x8",
      "blockHash": "0x1e811091e8913e9ede56e94834e1d4639e7df760a238888b9693b6886dc68f6a",
      "blockNumber": "0x1a704c2",
      "gasUsed": "0xb9b2",
      "effectiveGasPrice": "0xf4342",
      "from": "0x1312c13bdba3edfdd89706fc47653b0ded6c7b42",
      "to": "0x810f9678cb16b02ff88a92c5989af45c426aa121",
      "contractAddress": null,
      "l1BaseFeeScalar": "0x44d",
      "l1BlobBaseFee": "0x1",
      "l1BlobBaseFeeScalar": "0xa118b",
      "l1Fee": "0x134c2e8",
      "l1GasPrice": "0xa62cbc",
      "l1GasUsed": "0x697"
    }
  ],
  "libraries": [],
  "pending": [],
  "returns": {},
  "timestamp": 1751214199,
  "chain": 84532,
  "commit": "01f24f0"
}