{
  "transactions": [
    {
      "hash": "0x0d4e25b7445bf3263a713f7f8f66bcd7827acff59e0349c5f116dc0b1311a907",
      "transactionType": "CREATE",
      "contractName": "NavOracle",
      "contractAddress": "0x251e0688281d16b64d0e1d1453343133ae20a689",
      "function": null,
      "arguments": [
        "0xf9B8fc078197181C841c296C876945aaa425B278",
        "386",
        "0x66756e2d626173652d7365706f6c69612d310000000000000000000000000000",
        "\"const assetAddress = args[0] || '0xbDcfBEd3188040926bbEaBD70a25cFbE081F428d'; const CUSTODY_API = 'https://gar-apis-akhgun4t8-sarvagnakadiyas-projects.vercel.app'; const custodyRequest = Functions.makeHttpRequest({ url: `${CUSTODY_API}/getAssetPrice`, method: 'POST', headers: { 'Content-Type': 'application/json' }, data: { assetAddress } }); const response = await custodyRequest; if (response.error) { throw Error('Request failed'); } const price = response.data.price; return Functions.encodeUint256(price);\"",
        "\"const CUSTODY_API = 'https://gar-apis-akhgun4t8-sarvagnakadiyas-projects.vercel.app'; const response = await Functions.makeHttpRequest({ url: `${CUSTODY_API}/getTotalYield`, method: 'GET', headers: { 'Content-Type': 'application/json' } }); if (response.error) throw Error('Yield request failed'); return Functions.encodeUint256(response.data.totalYield);\"",
        "0x39ee4747908925f7e52767Bd26CD602e8C50Ce62"
      ],
      "transaction": {
        "from": "0x1312c13bdba3edfdd89706fc47653b0ded6c7b42",
        "gas": "0x3944c1",
        "value": "0x0",
        "input": "0x60a060405234801561001057600080fd5b5060405161288638038061288683398101604081905261002f91610259565b6001600160a01b038616608052600180546001600160401b0319166001600160401b038716179055600284905560036100688482610395565b5060046100758382610395565b50600580546001600160a01b0319166001600160a01b03831617905561009c6000336100d8565b506100c77fdf8b4c520ffe197c5343c6f5aec59570151ef9a492f2c624fd45ddde6135ec42336100d8565b505042600955506104539350505050565b6000828152602081815260408083206001600160a01b038516845290915281205460ff1661017a576000838152602081815260408083206001600160a01b03861684529091529020805460ff191660011790556101323390565b6001600160a01b0316826001600160a01b0316847f2f8788117e7eff1d82e926ec794901d17c78024a50270940304540a733656f0d60405160405180910390a450600161017e565b5060005b92915050565b80516001600160a01b038116811461019b57600080fd5b919050565b634e487b7160e01b600052604160045260246000fd5b600082601f8301126101c757600080fd5b81516001600160401b038111156101e0576101e06101a0565b604051601f8201601f19908116603f011681016001600160401b038111828210171561020e5761020e6101a0565b60405281815283820160200185101561022657600080fd5b60005b8281101561024557602081860181015183830182015201610229565b506000918101602001919091529392505050565b60008060008060008060c0878903121561027257600080fd5b61027b87610184565b60208801519096506001600160401b038116811461029857600080fd5b6040880151606089015191965094506001600160401b038111156102bb57600080fd5b6102c789828a016101b6565b608089015190945090506001600160401b038111156102e557600080fd5b6102f189828a016101b6565b92505061030060a08801610184565b90509295509295509295565b600181811c9082168061032057607f821691505b60208210810361034057634e487b7160e01b600052602260045260246000fd5b50919050565b601f82111561039057806000526020600020601f840160051c8101602085101561036d5750805b601f840160051c820191505b8181101561038d5760008155600101610379565b50505b505050565b81516001600160401b038111156103ae576103ae6101a0565b6103c2816103bc845461030c565b84610346565b6020601f8211600181146103f657600083156103de5750848201515b600019600385901b1c1916600184901b17845561038d565b600084815260208120601f198516915b828110156104265787850151825560209485019460019092019101610406565b50848210156104445786840151600019600387901b60f8161c191681555b50505050600190811b01905550565b6080516124116104756000396000818161054901526114d801526124116000f3fe608060405234801561001057600080fd5b50600436106101f05760003560e01c80638a4adf241161010f578063cf294d5e116100a2578063e462334711610071578063e462334714610493578063f00cab43146104a6578063f5553a61146104cd578063f60ce3c4146104f457600080fd5b8063cf294d5e1461043e578063d539139314610446578063d547741f1461046d578063db0a46e21461048057600080fd5b8063b2470e5c116100de578063b2470e5c146103f7578063b543503e146103ff578063bed74c8414610412578063c8f33c911461043557600080fd5b80638a4adf24146103c05780638dbe7b9d146103d357806391d14854146103dc578063a217fddf146103ef57600080fd5b806336568abe1161018757806365f3dca11161015657806365f3dca11461035457806367e828bf1461037b5780637aaf53e61461039057806389ac4147146103b757600080fd5b806336568abe1461031e5780634ab9ebb4146103315780634e1aa9ef146103395780635a109d1d1461034157600080fd5b80632795ad20116101c35780632795ad201461028e578063282c51f3146102cf5780632a0acc6a146102f65780632f2ff15d1461030b57600080fd5b806301ffc9a7146101f557806309c1ba2e1461021d5780630ca7617514610248578063248a9ca31461025d575b600080fd5b610208610203366004611bfd565b610507565b60405190151581526020015b60405180910390f35b600154610230906001600160401b031681565b6040516001600160401b039091168152602001610214565b61025b610256366004611ce8565b61053e565b005b61028061026b366004611d58565b60009081526020819052604090206001015490565b604051908152602001610214565b6102b761029c366004611d58565b6007602052600090815260409020546001600160a01b031681565b6040516001600160a01b039091168152602001610214565b6102807f3c11d16cbaffd01df69ce1c404f6340ee057498f5f00246190ea54220576a84881565b6102806000805160206123bc83398151915281565b61025b610319366004611d86565b6105c2565b61025b61032c366004611d86565b6105ed565b61025b610625565b61025b610786565b61025b61034f366004611db6565b6108d6565b6102807f9dbcece9015efd1c7df02e29f525d623fbf0c02265c5fb75781cfe09348d68e381565b610383610918565b6040516102149190611e81565b6102807f16dc53b3cf28c2b02b14673acc8879be1e6224dcbf181df0d67ea77671cbeeca81565b61028061070881565b6005546102b7906001600160a01b031681565b61028060025481565b6102086103ea366004611d86565b6109a6565b610280600081565b6103836109cf565b61025b61040d366004611e94565b6109dc565b610208610420366004611d58565b60086020526000908152604090205460ff1681565b61028060095481565b610280610a17565b6102807f9f2df0fed2c77648de5860a4cc508cd0818c85b8b8a1ab4ceeef8d981c8956a681565b61025b61047b366004611d86565b610bf9565b61038361048e366004611e94565b610c1e565b6102806104a1366004611e94565b610c37565b6102807fd3eedd6d69d410e954f4c622838ecc3acae9fdcd83cad412075c85b09277065681565b6102807fa8a8f4780603bbbfdfebdc9931f6249304ac3cdca694b22384be7e118f92c8fd81565b61025b610502366004611eb1565b610dca565b60006001600160e01b03198216637965db0b60e01b148061053857506301ffc9a760e01b6001600160e01b03198316145b92915050565b336001600160a01b037f000000000000000000000000000000000000000000000000000000000000000016146105875760405163c6829f8360e01b815260040160405180910390fd5b610592838383610dee565b60405183907f85e1543bf2f84fe80c6badbce3648c8539ad1df4d2b3d822938ca0538be727e690600090a2505050565b6000828152602081905260409020600101546105dd81611059565b6105e78383611066565b50505050565b6001600160a01b03811633146106165760405163334bd91960e11b815260040160405180910390fd5b61062082826110f8565b505050565b6107086009546106359190611f0f565b4210156106805760405162461bcd60e51b8152602060048201526014602482015273546f6f206561726c7920666f722075706461746560601b60448201526064015b60405180910390fd5b600554604080516306ecb81760e31b815290516000926001600160a01b031691633765c0b891600480830192869291908290030181865afa1580156106c9573d6000803e3d6000fd5b505050506040513d6000823e601f3d908101601f191682016040526106f19190810190611f22565b905060005b815181101561077e5760006006600084848151811061071757610717611fd9565b60200260200101516001600160a01b03166001600160a01b03168152602001908152602001600020805461074a90611fef565b905011156107765761077482828151811061076757610767611fd9565b6020026020010151610c37565b505b6001016106f6565b505042600955565b6107086009546107969190611f0f565b4210156107dc5760405162461bcd60e51b8152602060048201526014602482015273546f6f206561726c7920666f722075706461746560601b6044820152606401610677565b600554604080516306ecb81760e31b815290516000926001600160a01b031691633765c0b891600480830192869291908290030181865afa158015610825573d6000803e3d6000fd5b505050506040513d6000823e601f3d908101601f1916820160405261084d9190810190611f22565b905060005b81518110156108cd5760006006600084848151811061087357610873611fd9565b60200260200101516001600160a01b03166001600160a01b0316815260200190815260200160002080546108a690611fef565b905011156108c5576108c382828151811061076757610767611fd9565b505b600101610852565b5061077e610a17565b6000805160206123bc8339815191526108ee81611059565b6001600160a01b0384166000908152600660205260409020610911838583612070565b5050505050565b6003805461092590611fef565b80601f016020809104026020016040519081016040528092919081815260200182805461095190611fef565b801561099e5780601f106109735761010080835404028352916020019161099e565b820191906000526020600020905b81548152906001019060200180831161098157829003601f168201915b505050505081565b6000918252602082815260408084206001600160a01b0393909316845291905290205460ff1690565b6004805461092590611fef565b6000805160206123bc8339815191526109f481611059565b50600580546001600160a01b0319166001600160a01b0392909216919091179055565b60008060048054610a2790611fef565b905011610a6d5760405162461bcd60e51b8152602060048201526014602482015273165a595b19081cdbdd5c98d9481b9bdd081cd95d60621b6044820152606401610677565b610aae6040805160e0810190915280600081526020016000815260200160008152602001606081526020016060815260200160608152602001606081525090565b610b5060008060048054610ac190611fef565b80601f0160208091040260200160405190810160405280929190818152602001828054610aed90611fef565b8015610b3a5780601f10610b0f57610100808354040283529160200191610b3a565b820191906000526020600020905b815481529060010190602001808311610b1d57829003601f168201915b505050505084611163909392919063ffffffff16565b6040805160008082526020820190925281610b7b565b6060815260200190600190039081610b665790505b509050610b8882826111e1565b610bb0610b948361120b565b6001546002546001600160401b0390911690620493e0906114d3565b600081815260086020526040808220805460ff191660011790555191945084917fa6ac4d71c8189735b09ab681c65fd9350a2b69407ab2c25dc44ea86dd505d4aa9190a2505090565b600082815260208190526040902060010154610c1481611059565b6105e783836110f8565b6006602052600090815260409020805461092590611fef565b6001600160a01b03811660009081526006602052604081208054829190610c5d90611fef565b905011610ca35760405162461bcd60e51b8152602060048201526014602482015273105cdcd95d081b9bdd081c9959da5cdd195c995960621b6044820152606401610677565b610ce46040805160e0810190915280600081526020016000815260200160008152602001606081526020016060815260200160608152602001606081525090565b610cf760008060038054610ac190611fef565b604080516001808252818301909252600091816020015b6060815260200190600190039081610d0e579050509050610d39846001600160a01b031660146115a5565b81600081518110610d4c57610d4c611fd9565b6020908102919091010152610d6182826111e1565b610d6d610b948361120b565b60008181526007602052604080822080546001600160a01b0319166001600160a01b03891690811790915590519295509185917ff024512984fa71067a7d61ce045c438634193942ad63784eb0fe76499e80f54a91a35050919050565b6000805160206123bc833981519152610de281611059565b6003610620838261212f565b805115610e0f578060405162461bcd60e51b81526004016106779190611e81565b60008381526008602052604090205460ff1615610ef85760008381526008602090815260408220805460ff191690558351610e519190850181019085016121ed565b90508015610eb8576005546040516376e1120b60e01b8152600481018390526001600160a01b03909116906376e1120b90602401600060405180830381600087803b158015610e9f57600080fd5b505af1158015610eb3573d6000803e3d6000fd5b505050505b837f6db2066d48a942fb324d55605e2038c0adb1b4f1f65c2a8f13d63f8653e3b97582604051610eea91815260200190565b60405180910390a250505050565b6000838152600760205260409020546001600160a01b0316610f505760405162461bcd60e51b815260206004820152601160248201527014995c5d595cdd081b9bdd08199bdd5b99607a1b6044820152606401610677565b6000838152600760209081526040822080546001600160a01b0319811690915584516001600160a01b039091169291610f8f91860181019086016121ed565b90506000610fa582670de0b6b3a7640000612206565b600554604051631c2b190360e01b81526001600160a01b03868116600483015260248201849052929350911690631c2b190390604401600060405180830381600087803b158015610ff557600080fd5b505af1158015611009573d6000803e3d6000fd5b50505050826001600160a01b0316867f6fb5b564450c211a6d50095662a64ca2c6b0db85f8d5df73eee89bcd7ffd389a8460405161104991815260200190565b60405180910390a3505050505050565b6110638133611724565b50565b600061107283836109a6565b6110f0576000838152602081815260408083206001600160a01b03861684529091529020805460ff191660011790556110a83390565b6001600160a01b0316826001600160a01b0316847f2f8788117e7eff1d82e926ec794901d17c78024a50270940304540a733656f0d60405160405180910390a4506001610538565b506000610538565b600061110483836109a6565b156110f0576000838152602081815260408083206001600160a01b0386168085529252808320805460ff1916905551339286917ff6391f5c32d9c69d2a47ea670b442974b53935d1edc7fd64eb21e047a839171b9190a4506001610538565b8051600003611185576040516322ce3edd60e01b815260040160405180910390fd5b838360028111156111985761119861221d565b908160028111156111ab576111ab61221d565b905250604084018280156111c1576111c161221d565b908180156111d1576111d161221d565b9052506060909301929092525050565b80516000036112035760405163fe936cb760e01b815260040160405180910390fd5b60a090910152565b6060600061121a610100611761565b90506112536040518060400160405280600c81526020016b31b7b232a637b1b0ba34b7b760a11b8152508261178290919063ffffffff16565b825161127190600281111561126a5761126a61221d565b829061179b565b6040805180820190915260088152676c616e677561676560c01b602082015261129b908290611782565b60408301516112b290801561126a5761126a61221d565b604080518082019091526006815265736f7572636560d01b60208201526112da908290611782565b60608301516112ea908290611782565b60a08301515115611376576040805180820190915260048152636172677360e01b602082015261131b908290611782565b611324816117d4565b60005b8360a001515181101561136c576113648460a00151828151811061134d5761134d611fd9565b60200260200101518361178290919063ffffffff16565b600101611327565b50611376816117f8565b6080830151511561143a576000836020015160028111156113995761139961221d565b036113b75760405163a80d31f760e01b815260040160405180910390fd5b60408051808201909152600f81526e39b2b1b932ba39a637b1b0ba34b7b760891b60208201526113e8908290611782565b6114018360200151600281111561126a5761126a61221d565b6040805180820190915260078152667365637265747360c81b602082015261142a908290611782565b608083015161143a908290611816565b60c083015151156114cb5760408051808201909152600981526862797465734172677360b81b6020820152611470908290611782565b611479816117d4565b60005b8360c00151518110156114c1576114b98460c0015182815181106114a2576114a2611fd9565b60200260200101518361181690919063ffffffff16565b60010161147c565b506114cb816117f8565b515192915050565b6000807f00000000000000000000000000000000000000000000000000000000000000006001600160a01b031663461d27628688600188886040518663ffffffff1660e01b815260040161152b959493929190612233565b6020604051808303816000875af115801561154a573d6000803e3d6000fd5b505050506040513d601f19601f8201168201806040525081019061156e91906121ed565b60405190915081907f1131472297a800fee664d1d89cfa8f7676ff07189ecc53f80bbb5f4969099db890600090a295945050505050565b60608260006115b5846002612206565b6115c0906002611f0f565b6001600160401b038111156115d7576115d7611c27565b6040519080825280601f01601f191660200182016040528015611601576020820181803683370190505b509050600360fc1b8160008151811061161c5761161c611fd9565b60200101906001600160f81b031916908160001a905350600f60fb1b8160018151811061164b5761164b611fd9565b60200101906001600160f81b031916908160001a905350600061166f856002612206565b61167a906001611f0f565b90505b60018111156116f2576f181899199a1a9b1b9c1cb0b131b232b360811b83600f16601081106116ae576116ae611fd9565b1a60f81b8282815181106116c4576116c4611fd9565b60200101906001600160f81b031916908160001a90535060049290921c916116eb8161227c565b905061167d565b50811561171c5760405163e22e27eb60e01b81526004810186905260248101859052604401610677565b949350505050565b61172e82826109a6565b61175d5760405163e2517d3f60e01b81526001600160a01b038216600482015260248101839052604401610677565b5050565b611769611bc8565b80516117759083611823565b5060006020820152919050565b61178f826003835161189a565b815161062090826119b3565b81516117a89060c26119db565b5061175d82826040516020016117c091815260200190565b604051602081830303815290604052611816565b6117df816004611a44565b6001816020018181516117f29190611f0f565b90525050565b611803816007611a44565b6001816020018181516117f29190612293565b61178f826002835161189a565b6040805180820190915260608152600060208201526118436020836122a6565b1561186b576118536020836122a6565b61185e906020612293565b6118689083611f0f565b91505b60208084018390526040518085526000815290818401018181101561188f57600080fd5b604052509192915050565b6017816001600160401b0316116118c05782516105e79060e0600585901b1683176119db565b60ff816001600160401b0316116119005782516118e8906018611fe0600586901b16176119db565b5082516105e7906001600160401b0383166001611a5b565b61ffff816001600160401b031611611941578251611929906019611fe0600586901b16176119db565b5082516105e7906001600160401b0383166002611a5b565b63ffffffff816001600160401b03161161198457825161196c90601a611fe0600586901b16176119db565b5082516105e7906001600160401b0383166004611a5b565b825161199b90601b611fe0600586901b16176119db565b5082516105e7906001600160401b0383166008611a5b565b6040805180820190915260608152600060208201526119d483838451611ae0565b9392505050565b6040805180820190915260608152600060208201528251516000611a00826001611f0f565b905084602001518210611a2157611a2185611a1c836002612206565b611bb1565b8451602083820101858153508051821115611a3a578181525b5093949350505050565b815161062090601f611fe0600585901b16176119db565b6040805180820190915260608152600060208201528351516000611a7f8285611f0f565b90508560200151811115611a9c57611a9c86611a1c836002612206565b60006001611aac866101006123af565b611ab69190612293565b90508651828101878319825116178152508051831115611ad4578281525b50959695505050505050565b6040805180820190915260608152600060208201528251821115611b0357600080fd5b8351516000611b128483611f0f565b90508560200151811115611b2f57611b2f86611a1c836002612206565b855180518382016020019160009180851115611b49578482525b505050602086015b60208610611b895780518252611b68602083611f0f565b9150611b75602082611f0f565b9050611b82602087612293565b9550611b51565b51815160001960208890036101000a0190811690199190911617905250849150509392505050565b8151611bbd8383611823565b506105e783826119b3565b6040518060400160405280611bf0604051806040016040528060608152602001600081525090565b8152602001600081525090565b600060208284031215611c0f57600080fd5b81356001600160e01b0319811681146119d457600080fd5b634e487b7160e01b600052604160045260246000fd5b604051601f8201601f191681016001600160401b0381118282101715611c6557611c65611c27565b604052919050565b6000806001600160401b03841115611c8757611c87611c27565b50601f8301601f1916602001611c9c81611c3d565b915050828152838383011115611cb157600080fd5b828260208301376000602084830101529392505050565b600082601f830112611cd957600080fd5b6119d483833560208501611c6d565b600080600060608486031215611cfd57600080fd5b8335925060208401356001600160401b03811115611d1a57600080fd5b611d2686828701611cc8565b92505060408401356001600160401b03811115611d4257600080fd5b611d4e86828701611cc8565b9150509250925092565b600060208284031215611d6a57600080fd5b5035919050565b6001600160a01b038116811461106357600080fd5b60008060408385031215611d9957600080fd5b823591506020830135611dab81611d71565b809150509250929050565b600080600060408486031215611dcb57600080fd5b8335611dd681611d71565b925060208401356001600160401b03811115611df157600080fd5b8401601f81018613611e0257600080fd5b80356001600160401b03811115611e1857600080fd5b866020828401011115611e2a57600080fd5b939660209190910195509293505050565b6000815180845260005b81811015611e6157602081850181015186830182015201611e45565b506000602082860101526020601f19601f83011685010191505092915050565b6020815260006119d46020830184611e3b565b600060208284031215611ea657600080fd5b81356119d481611d71565b600060208284031215611ec357600080fd5b81356001600160401b03811115611ed957600080fd5b8201601f81018413611eea57600080fd5b61171c84823560208401611c6d565b634e487b7160e01b600052601160045260246000fd5b8082018082111561053857610538611ef9565b600060208284031215611f3457600080fd5b81516001600160401b03811115611f4a57600080fd5b8201601f81018413611f5b57600080fd5b80516001600160401b03811115611f7457611f74611c27565b8060051b611f8460208201611c3d565b91825260208184018101929081019087841115611fa057600080fd5b6020850194505b83851015611fce5784519250611fbc83611d71565b82825260209485019490910190611fa7565b979650505050505050565b634e487b7160e01b600052603260045260246000fd5b600181811c9082168061200357607f821691505b60208210810361202357634e487b7160e01b600052602260045260246000fd5b50919050565b601f82111561062057806000526020600020601f840160051c810160208510156120505750805b601f840160051c820191505b81811015610911576000815560010161205c565b6001600160401b0383111561208757612087611c27565b61209b836120958354611fef565b83612029565b6000601f8411600181146120cf57600085156120b75750838201355b600019600387901b1c1916600186901b178355610911565b600083815260209020601f19861690835b8281101561210057868501358255602094850194600190920191016120e0565b508682101561211d5760001960f88860031b161c19848701351681555b505060018560011b0183555050505050565b81516001600160401b0381111561214857612148611c27565b61215c816121568454611fef565b84612029565b6020601f82116001811461219057600083156121785750848201515b600019600385901b1c1916600184901b178455610911565b600084815260208120601f198516915b828110156121c057878501518255602094850194600190920191016121a0565b50848210156121de5786840151600019600387901b60f8161c191681555b50505050600190811b01905550565b6000602082840312156121ff57600080fd5b5051919050565b808202811582820484141761053857610538611ef9565b634e487b7160e01b600052602160045260246000fd5b6001600160401b038616815260a06020820152600061225560a0830187611e3b565b61ffff9590951660408301525063ffffffff92909216606083015260809091015292915050565b60008161228b5761228b611ef9565b506000190190565b8181038181111561053857610538611ef9565b6000826122c357634e487b7160e01b600052601260045260246000fd5b500690565b6001815b6001841115612303578085048111156122e7576122e7611ef9565b60018416156122f557908102905b60019390931c9280026122cc565b935093915050565b60008261231a57506001610538565b8161232757506000610538565b816001811461233d576002811461234757612363565b6001915050610538565b60ff84111561235857612358611ef9565b50506001821b610538565b5060208310610133831016604e8410600b8410161715612386575081810a610538565b61239360001984846122c8565b80600019048211156123a7576123a7611ef9565b029392505050565b60006119d4838361230b56fedf8b4c520ffe197c5343c6f5aec59570151ef9a492f2c624fd45ddde6135ec42a264697066735822122019ad422db5c6afe8f6d7e102e56ec6498705edf5f3c9ef3a16dec50fb9dd320b64736f6c634300081e0033000000000000000000000000f9b8fc078197181c841c296c876945aaa425b278000000000000000000000000000000000000000000000000000000000000018266756e2d626173652d7365706f6c69612d31000000000000000000000000000000000000000000000000000000000000000000000000000000000000000000c000000000000000000000000000000000000000000000000000000000000002e000000000000000000000000039ee4747908925f7e52767bd26cd602e8c50ce6200000000000000000000000000000000000000000000000000000000000001ff636f6e737420617373657441646472657373203d20617267735b305d207c7c2027307862446366424564333138383034303932366262456142443730613235634662453038314634323864273b20636f6e737420435553544f44595f415049203d202768747470733a2f2f6761722d617069732d616b6867756e3474382d7361727661676e616b6164697961732d70726f6a656374732e76657263656c2e617070273b20636f6e737420637573746f647952657175657374203d2046756e6374696f6e732e6d616b654874747052657175657374287b2075726c3a2060247b435553544f44595f4150497d2f67657441737365745072696365602c206d6574686f643a2027504f5354272c20686561646572733a207b2027436f6e74656e742d54797065273a20276170706c69636174696f6e2f6a736f6e27207d2c20646174613a207b20617373657441646472657373207d207d293b20636f6e737420726573706f6e7365203d20617761697420637573746f6479526571756573743b2069662028726573706f6e73652e6572726f7229207b207468726f77204572726f72282752657175657374206661696c656427293b207d20636f6e7374207072696365203d20726573706f6e73652e646174612e70726963653b2072657475726e2046756e6374696f6e732e656e636f646555696e74323536287072696365293b000000000000000000000000000000000000000000000000000000000000000163636f6e737420435553544f44595f415049203d202768747470733a2f2f6761722d617069732d616b6867756e3474382d7361727661676e616b6164697961732d70726f6a656374732e76657263656c2e617070273b20636f6e737420726573706f6e7365203d2061776169742046756e6374696f6e732e6d616b654874747052657175657374287b2075726c3a2060247b435553544f44595f4150497d2f676574546f74616c5969656c64602c206d6574686f643a2027474554272c20686561646572733a207b2027436f6e74656e742d54797065273a20276170706c69636174696f6e2f6a736f6e27207d207d293b2069662028726573706f6e73652e6572726f7229207468726f77204572726f7228275969656c642072657175657374206661696c656427293b2072657475726e2046756e6374696f6e732e656e636f646555696e7432353628726573706f6e73652e646174612e746f74616c5969656c64293b0000000000000000000000000000000000000000000000000000000000",
        "nonce": "0x303",
        "chainId": "0x14a34"
      },
      "additionalContracts": [],
      "isFixedGasLimit": false
    },
    {
      "hash": "0xff2c1ca8a7e56e9877fd42fbb181812dfbbfe73f60089731960499f9b841b400",
      "transactionType": "CALL",
      "contractName": "VaultManager",
      "contractAddress": "0x39ee4747908925f7e52767bd26cd602e8c50ce62",
      "function": "grantSentinelRole(address)",
      "arguments": [
        "0x251E0688281d16b64d0E1D1453343133AE20A689"
      ],
      "transaction": {
        "from": "0x1312c13bdba3edfdd89706fc47653b0ded6c7b42",
        "to": "0x39ee4747908925f7e52767bd26cd602e8c50ce62",
        "gas": "0x107c2",
        "value": "0x0",
        "input": "0x69245ad7000000000000000000000000251e0688281d16b64d0e1d1453343133ae20a689",
        "nonce": "0x304",
        "chainId": "0x14a34"
      },
      "additionalContracts": [],
      "isFixedGasLimit": false
    },
    {
      "hash": "0xe155c4b50a89036875137696dc3973ad8ce99d147059a7f5c8e32b8081b3032e",
      "transactionType": "CALL",
      "contractName": "VaultManager",
      "contractAddress": "0x39ee4747908925f7e52767bd26cd602e8c50ce62",
      "function": "addAsset(address,uint256)",
      "arguments": [
        "0x3dbb0344f6C2Fe6122179Cc3795A3eB10Be458dc",
        "500"
      ],
      "transaction": {
        "from": "0x1312c13bdba3edfdd89706fc47653b0ded6c7b42",
        "to": "0x39ee4747908925f7e52767bd26cd602e8c50ce62",
        "gas": "0x15382",
        "value": "0x0",
        "input": "0x66a6a4bd0000000000000000000000003dbb0344f6c2fe6122179cc3795a3eb10be458dc00000000000000000000000000000000000000000000000000000000000001f4",
        "nonce": "0x305",
        "chainId": "0x14a34"
      },
      "additionalContracts": [],
      "isFixedGasLimit": false
    },
    {
      "hash": "0x2ed974d7f9b1b1f6d45192f167a14a0a446e2c702bce2f34976d4521de5385ae",
      "transactionType": "CALL",
      "contractName": "VaultManager",
      "contractAddress": "0x39ee4747908925f7e52767bd26cd602e8c50ce62",
      "function": "addAsset(address,uint256)",
      "arguments": [
        "0x50F3660D13E12eb9cAb75df95305B404E6d2d506",
        "1000"
      ],
      "transaction": {
        "from": "0x1312c13bdba3edfdd89706fc47653b0ded6c7b42",
        "to": "0x39ee4747908925f7e52767bd26cd602e8c50ce62",
        "gas": "0x15382",
        "value": "0x0",
        "input": "0x66a6a4bd00000000000000000000000050f3660d13e12eb9cab75df95305b404e6d2d50600000000000000000000000000000000000000000000000000000000000003e8",
        "nonce": "0x306",
        "chainId": "0x14a34"
      },
      "additionalContracts": [],
      "isFixedGasLimit": false
    },
    {
      "hash": "0x662fd8bb70feb50156215168d36dde869c141b270c83e34473b2c9800d22ed86",
      "transactionType": "CALL",
      "contractName": "VaultManager",
      "contractAddress": "0x39ee4747908925f7e52767bd26cd602e8c50ce62",
      "function": "addAsset(address,uint256)",
      "arguments": [
        "0x69617a40EA29Aabc6BCd151865cfC62e30b67012",
        "200"
      ],
      "transaction": {
        "from": "0x1312c13bdba3edfdd89706fc47653b0ded6c7b42",
        "to": "0x39ee4747908925f7e52767bd26cd602e8c50ce62",
        "gas": "0x1676a",
        "value": "0x0",
        "input": "0x66a6a4bd00000000000000000000000069617a40ea29aabc6bcd151865cfc62e30b6701200000000000000000000000000000000000000000000000000000000000000c8",
        "nonce": "0x307",
        "chainId": "0x14a34"
      },
      "additionalContracts": [],
      "isFixedGasLimit": false
    },
    {
      "hash": "0x527ef9d12d0310b530ff8c4ee206e3c8477bf8c3609a1e307e70431db9b7a7a0",
      "transactionType": "CALL",
      "contractName": "NavOracle",
      "contractAddress": "0x251e0688281d16b64d0e1d1453343133ae20a689",
      "function": "addAsset(address,string)",
      "arguments": [
        "0x3dbb0344f6C2Fe6122179Cc3795A3eB10Be458dc",
        "\"INR-SGB\""
      ],
      "transaction": {
        "from": "0x1312c13bdba3edfdd89706fc47653b0ded6c7b42",
        "to": "0x251e0688281d16b64d0e1d1453343133ae20a689",
        "gas": "0x10f94",
        "value": "0x0",
        "input": "0x5a109d1d0000000000000000000000003dbb0344f6c2fe6122179cc3795a3eb10be458dc00000000000000000000000000000000000000000000000000000000000000400000000000000000000000000000000000000000000000000000000000000007494e522d53474200000000000000000000000000000000000000000000000000",
        "nonce": "0x308",
        "chainId": "0x14a34"
      },
      "additionalContracts": [],
      "isFixedGasLimit": false
    },
    {
      "hash": "0xa922676ddbfc53f6e38f26d24fdae3efe77bcd9c5698277dec3873ceadf052cc",
      "transactionType": "CALL",
      "contractName": "NavOracle",
      "contractAddress": "0x251e0688281d16b64d0e1d1453343133ae20a689",
      "function": "addAsset(address,string)",
      "arguments": [
        "0x50F3660D13E12eb9cAb75df95305B404E6d2d506",
        "\"INR-CORP\""
      ],
      "transaction": {
        "from": "0x1312c13bdba3edfdd89706fc47653b0ded6c7b42",
        "to": "0x251e0688281d16b64d0e1d1453343133ae20a689",
        "gas": "0x1008d",
        "value": "0x0",
        "input": "0x5a109d1d00000000000000000000000050f3660d13e12eb9cab75df95305b404e6d2d50600000000000000000000000000000000000000000000000000000000000000400000000000000000000000000000000000000000000000000000000000000008494e522d434f5250000000000000000000000000000000000000000000000000",
        "nonce": "0x309",
        "chainId": "0x14a34"
      },
      "additionalContracts": [],
      "isFixedGasLimit": false
    },
    {
      "hash": "0x14204a0f20d8638b7b73f05654b78174fb9354274deb1570c8340782c20f67d0",
      "transactionType": "CALL",
      "contractName": "NavOracle",
      "contractAddress": "0x251e0688281d16b64d0e1d1453343133ae20a689",
      "function": "addAsset(address,string)",
      "arguments": [
        "0x69617a40EA29Aabc6BCd151865cfC62e30b67012",
        "\"INR-MFD\""
      ],
      "transaction": {
        "from": "0x1312c13bdba3edfdd89706fc47653b0ded6c7b42",
        "to": "0x251e0688281d16b64d0e1d1453343133ae20a689",
        "gas": "0x10f94",
        "value": "0x0",
        "input": "0x5a109d1d00000000000000000000000069617a40ea29aabc6bcd151865cfc62e30b6701200000000000000000000000000000000000000000000000000000000000000400000000000000000000000000000000000000000000000000000000000000007494e522d4d464400000000000000000000000000000000000000000000000000",
        "nonce": "0x30a",
        "chainId": "0x14a34"
      },
      "additionalContracts": [],
      "isFixedGasLimit": false
    }
  ],
  "receipts": [
    {
      "status": "0x1",
      "cumulativeGasUsed": "0x87d625",
      "logs": [
        {
          "address": "0x251e0688281d16b64d0e1d1453343133ae20a689",
          "topics": [
            "0x2f8788117e7eff1d82e926ec794901d17c78024a50270940304540a733656f0d",
            "0x0000000000000000000000000000000000000000000000000000000000000000",
            "0x0000000000000000000000001312c13bdba3edfdd89706fc47653b0ded6c7b42",
            "0x0000000000000000000000001312c13bdba3edfdd89706fc47653b0ded6c7b42"
          ],
          "data": "0x",
          "blockHash": "0xc6b1d088e33c3577b57cabe89ecd0a019716354df83f4cf8596f0a5f0b082df6",
          "blockNumber": "0x1a6ffb4",
          "blockTimestamp": "0x68615e48",
          "transactionHash": "0x0d4e25b7445bf3263a713f7f8f66bcd7827acff59e0349c5f116dc0b1311a907",
          "transactionIndex": "0x16",
          "logIndex": "0xe1",
          "removed": false
        },
        {
          "address": "0x251e0688281d16b64d0e1d1453343133ae20a689",
          "topics": [
            "0x2f8788117e7eff1d82e926ec794901d17c78024a50270940304540a733656f0d",
            "0xdf8b4c520ffe197c5343c6f5aec59570151ef9a492f2c624fd45ddde6135ec42",
            "0x0000000000000000000000001312c13bdba3edfdd89706fc47653b0ded6c7b42",
            "0x0000000000000000000000001312c13bdba3edfdd89706fc47653b0ded6c7b42"
          ],
          "data": "0x",
          "blockHash": "0xc6b1d088e33c3577b57cabe89ecd0a019716354df83f4cf8596f0a5f0b082df6",
          "blockNumber": "0x1a6ffb4",
          "blockTimestamp": "0x68615e48",
          "transactionHash": "0x0d4e25b7445bf3263a713f7f8f66bcd7827acff59e0349c5f116dc0b1311a907",
          "transactionIndex": "0x16",
          "logIndex": "0xe2",
          "removed": false
        }
      ],
      "logsBloom": "0x00000004000000000000000000000000000000000000000000000000000000200000000000000000000000000000000000000000000000000000000000000000000000000000000000000000000000000000000000000000000000000000000000000000020000000000008000000800000000000000000000000000000000000000000000000000000000000001000000000000000000000000000000000000000000000000000000000004100000000000000000000000001000000000000000000000000000000000000000000000000000000000000100000000000020000000000000100000000000000000010000400000000000000000040000000000",
      "type": "0x2",
      "transactionHash": "0x0d4e25b7445bf3263a713f7f8f66bcd7827acff59e0349c5f116dc0b1311a907",
      "transactionIndex": "0x16",
      "blockHash": "0xc6b1d088e33c3577b57cabe89ecd0a019716354df83f4cf8596f0a5f0b082df6",
      "blockNumber": "0x1a6ffb4",
      "gasUsed": "0x2c1053",
      "effectiveGasPrice": "0xf4436",
      "from": "0x1312c13bdba3edfdd89706fc47653b0ded6c7b42",
      "to": null,
      "contractAddress": "0x251e0688281d16b64d0e1d1453343133ae20a689",
      "l1BaseFeeScalar": "0x44d",
      "l1BlobBaseFee": "0x1",
      "l1BlobBaseFeeScalar": "0xa118b",
      "l1Fee": "0xaf81874f",
      "l1GasPrice": "0x187652a",
      "l1GasUsed": "0x19746"
    },
    {
      "status": "0x1",
      "cumulativeGasUsed": "0x88951a",
      "logs": [
        {
          "address": "0x39ee4747908925f7e52767bd26cd602e8c50ce62",
          "topics": [
            "0x2f8788117e7eff1d82e926ec794901d17c78024a50270940304540a733656f0d",
            "0xd3eedd6d69d410e954f4c622838ecc3acae9fdcd83cad412075c85b092770656",
            "0x000000000000000000000000251e0688281d16b64d0e1d1453343133ae20a689",
            "0x0000000000000000000000001312c13bdba3edfdd89706fc47653b0ded6c7b42"
          ],
          "data": "0x",
          "blockHash": "0x9ed1d98869f56fb84a5cc5a32dabb40e7c803bd58941bcee37935a1b1986421c",
          "blockNumber": "0x1a6ffb4",
          "blockTimestamp": "0x68615e48",
          "transactionHash": "0xff2c1ca8a7e56e9877fd42fbb181812dfbbfe73f60089731960499f9b841b400",
          "transactionIndex": "0x17",
          "logIndex": "0xe3",
          "removed": false
        }
      ],
      "logsBloom": "0x00000004000000000000000000000000000000000000000000000000000000000000000000000000000000000000000000000000000000000000000000000000000000000000000000000000000000000000000000000000000000008000000000000000000000000100000000000000000000000000080000000000000000000800000000000000000000000000000000000000000000000000000000000000000000000000000000080000000000000000000000000000001000000100000000000000000000000000000400000000000000000000000100000000000000000040000000100000000000000000010000000000000000004000040000000000",
      "type": "0x2",
      "transactionHash": "0xff2c1ca8a7e56e9877fd42fbb181812dfbbfe73f60089731960499f9b841b400",
      "transactionIndex": "0x17",
      "blockHash": "0x9ed1d98869f56fb84a5cc5a32dabb40e7c803bd58941bcee37935a1b1986421c",
      "blockNumber": "0x1a6ffb4",
      "gasUsed": "0xbef5",
      "effectiveGasPrice": "0xf4436",
      "from": "0x1312c13bdba3edfdd89706fc47653b0ded6c7b42",
      "to": "0x39ee4747908925f7e52767bd26cd602e8c50ce62",
      "contractAddress": null,
      "l1BaseFeeScalar": "0x44d",
      "l1BlobBaseFee": "0x1",
      "l1BlobBaseFeeScalar": "0xa118b",
      "l1Fee": "0x2b17b94",
      "l1GasPrice": "0x187652a",
      "l1GasUsed": "0x640"
    },
    {
      "status": "0x1",
      "cumulativeGasUsed": "0x898ae7",
      "logs": [],
      "logsBloom": "0x00000000000000000000000000000000000000000000000000000000000000000000000000000000000000000000000000000000000000000000000000000000000000000000000000000000000000000000000000000000000000000000000000000000000000000000000000000000000000000000000000000000000000000000000000000000000000000000000000000000000000000000000000000000000000000000000000000000000000000000000000000000000000000000000000000000000000000000000000000000000000000000000000000000000000000000000000000000000000000000000000000000000000000000000000000000",
      "type": "0x2",
      "transactionHash": "0xe155c4b50a89036875137696dc3973ad8ce99d147059a7f5c8e32b8081b3032e",
      "transactionIndex": "0x18",
      "blockHash": "0x9ed1d98869f56fb84a5cc5a32dabb40e7c803bd58941bcee37935a1b1986421c",
      "blockNumber": "0x1a6ffb4",
      "gasUsed": "0xf5cd",
      "effectiveGasPrice": "0xf4436",
      "from": "0x1312c13bdba3edfdd89706fc47653b0ded6c7b42",
      "to": "0x39ee4747908925f7e52767bd26cd602e8c50ce62",
      "contractAddress": null,
      "l1BaseFeeScalar": "0x44d",
      "l1BlobBaseFee": "0x1",
      "l1BlobBaseFeeScalar": "0xa118b",
      "l1Fee": "0x2b17b94",
      "l1GasPrice": "0x187652a",
      "l1GasUsed": "0x640"
    },
    {
      "status": "0x1",
      "cumulativeGasUsed": "0x8a80b4",
      "logs": [],
      "logsBloom": "0x00000000000000000000000000000000000000000000000000000000000000000000000000000000000000000000000000000000000000000000000000000000000000000000000000000000000000000000000000000000000000000000000000000000000000000000000000000000000000000000000000000000000000000000000000000000000000000000000000000000000000000000000000000000000000000000000000000000000000000000000000000000000000000000000000000000000000000000000000000000000000000000000000000000000000000000000000000000000000000000000000000000000000000000000000000000",
      "type": "0x2",
      "transactionHash": "0x2ed974d7f9b1b1f6d45192f167a14a0a446e2c702bce2f34976d4521de5385ae",
      "transactionIndex": "0x19",
      "blockHash": "0x9ed1d98869f56fb84a5cc5a32dabb40e7c803bd58941bcee37935a1b1986421c",
      "blockNumber": "0x1a6ffb4",
      "gasUsed": "0xf5cd",
      "effectiveGasPrice": "0xf4436",
      "from": "0x1312c13bdba3edfdd89706fc47653b0ded6c7b42",
      "to": "0x39ee4747908925f7e52767bd26cd602e8c50ce62",
      "contractAddress": null,
      "l1BaseFeeScalar": "0x44d",
      "l1BlobBaseFee": "0x1",
      "l1BlobBaseFeeScalar": "0xa118b",
      "l1Fee": "0x2b17b94",
      "l1GasPrice": "0x187652a",
      "l1GasUsed": "0x640"
    },
    {
      "status": "0x1",
      "cumulativeGasUsed": "0x97a4d3",
      "logs": [],
      "logsBloom": "0x00000000000000000000000000000000000000000000000000000000000000000000000000000000000000000000000000000000000000000000000000000000000000000000000000000000000000000000000000000000000000000000000000000000000000000000000000000000000000000000000000000000000000000000000000000000000000000000000000000000000000000000000000000000000000000000000000000000000000000000000000000000000000000000000000000000000000000000000000000000000000000000000000000000000000000000000000000000000000000000000000000000000000000000000000000000",
      "type": "0x2",
      "transactionHash": "0x662fd8bb70feb50156215168d36dde869c141b270c83e34473b2c9800d22ed86",
      "transactionIndex": "0x1d",
      "blockHash": "0x9ed1d98869f56fb84a5cc5a32dabb40e7c803bd58941bcee37935a1b1986421c",
      "blockNumber": "0x1a6ffb4",
      "gasUsed": "0xf5c1",
      "effectiveGasPrice": "0xf4436",
      "from": "0x1312c13bdba3edfdd89706fc47653b0ded6c7b42",
      "to": "0x39ee4747908925f7e52767bd26cd602e8c50ce62",
      "contractAddress": null,
      "l1BaseFeeScalar": "0x44d",
      "l1BlobBaseFee": "0x1",
      "l1BlobBaseFeeScalar": "0xa118b",
      "l1Fee": "0x2b17b94",
      "l1GasPrice": "0x187652a",
      "l1GasUsed": "0x640"
    },
    {
      "status": "0x1",
      "cumulativeGasUsed": "0x985e85",
      "logs": [],
      "logsBloom": "0x00000000000000000000000000000000000000000000000000000000000000000000000000000000000000000000000000000000000000000000000000000000000000000000000000000000000000000000000000000000000000000000000000000000000000000000000000000000000000000000000000000000000000000000000000000000000000000000000000000000000000000000000000000000000000000000000000000000000000000000000000000000000000000000000000000000000000000000000000000000000000000000000000000000000000000000000000000000000000000000000000000000000000000000000000000000",
      "type": "0x2",
      "transactionHash": "0x527ef9d12d0310b530ff8c4ee206e3c8477bf8c3609a1e307e70431db9b7a7a0",
      "transactionIndex": "0x1e",
      "blockHash": "0xc6b1d088e33c3577b57cabe89ecd0a019716354df83f4cf8596f0a5f0b082df6",
      "blockNumber": "0x1a6ffb4",
      "gasUsed": "0xb9b2",
      "effectiveGasPrice": "0xf4436",
      "from": "0x1312c13bdba3edfdd89706fc47653b0ded6c7b42",
      "to": "0x251e0688281d16b64d0e1d1453343133ae20a689",
      "contractAddress": null,
      "l1BaseFeeScalar": "0x44d",
      "l1BlobBaseFee": "0x1",
      "l1BlobBaseFeeScalar": "0xa118b",
      "l1Fee": "0x2d73b32",
      "l1GasPrice": "0x187652a",
      "l1GasUsed": "0x697"
    },
    {
      "status": "0x1",
      "cumulativeGasUsed": "0x991843",
      "logs": [],
      "logsBloom": "0x00000000000000000000000000000000000000000000000000000000000000000000000000000000000000000000000000000000000000000000000000000000000000000000000000000000000000000000000000000000000000000000000000000000000000000000000000000000000000000000000000000000000000000000000000000000000000000000000000000000000000000000000000000000000000000000000000000000000000000000000000000000000000000000000000000000000000000000000000000000000000000000000000000000000000000000000000000000000000000000000000000000000000000000000000000000",
      "type": "0x2",
      "transactionHash": "0xa922676ddbfc53f6e38f26d24fdae3efe77bcd9c5698277dec3873ceadf052cc",
      "transactionIndex": "0x1f",
      "blockHash": "0xc6b1d088e33c3577b57cabe89ecd0a019716354df83f4cf8596f0a5f0b082df6",
      "blockNumber": "0x1a6ffb4",
      "gasUsed": "0xb9be",
      "effectiveGasPrice": "0xf4436",
      "from": "0x1312c13bdba3edfdd89706fc47653b0ded6c7b42",
      "to": "0x251e0688281d16b64d0e1d1453343133ae20a689",
      "contractAddress": null,
      "l1BaseFeeScalar": "0x44d",
      "l1BlobBaseFee": "0x1",
      "l1BlobBaseFeeScalar": "0xa118b",
      "l1Fee": "0x2dcffae",
      "l1GasPrice": "0x187652a",
      "l1GasUsed": "0x6a4"
    },
    {
      "status": "0x1",
      "cumulativeGasUsed": "0xa8530b",
      "logs": [],
      "logsBloom": "0x00000000000000000000000000000000000000000000000000000000000000000000000000000000000000000000000000000000000000000000000000000000000000000000000000000000000000000000000000000000000000000000000000000000000000000000000000000000000000000000000000000000000000000000000000000000000000000000000000000000000000000000000000000000000000000000000000000000000000000000000000000000000000000000000000000000000000000000000000000000000000000000000000000000000000000000000000000000000000000000000000000000000000000000000000000000",
      "type": "0x2",
      "transactionHash": "0x14204a0f20d8638b7b73f05654b78174fb9354274deb1570c8340782c20f67d0",
      "transactionIndex": "0x25",
      "blockHash": "0x9ed1d98869f56fb84a5cc5a32dabb40e7c803bd58941bcee37935a1b1986421c",
      "blockNumber": "0x1a6ffb4",
      "gasUsed": "0xb9b2",
      "effectiveGasPrice": "0xf4436",
      "from": "0x1312c13bdba3edfdd89706fc47653b0ded6c7b42",
      "to": "0x251e0688281d16b64d0e1d1453343133ae20a689",
      "contractAddress": null,
      "l1BaseFeeScalar": "0x44d",
      "l1BlobBaseFee": "0x1",
      "l1BlobBaseFeeScalar": "0xa118b",
      "l1Fee": "0x2d73b32",
      "l1GasPrice": "0x187652a",
      "l1GasUsed": "0x697"
    }
  ],
  "libraries": [],
  "pending": [],
  "returns": {},
  "timestamp": 1751211612,
  "chain": 84532,
  "commit": "01f24f0"
}