{
  "transactions": [
    {
      "hash": "0xa0975d1f9406676a53c350fdb3da779f5f740aba1d4654c431d8c39315bc22d5",
      "transactionType": "CREATE",
      "contractName": "NavOracle",
      "contractAddress": "0xde4a516f29339089c21b79dfd40a7f50d22414c9",
      "function": null,
      "arguments": [
        "0xf9B8fc078197181C841c296C876945aaa425B278",
        "386",
        "0x66756e2d626173652d7365706f6c69612d310000000000000000000000000000",
        "\"const assetAddress = args[0] || '0xbDcfBEd3188040926bbEaBD70a25cFbE081F428d'; const CUSTODY_API = 'https://gar-apis-akhgun4t8-sarvagnakadiyas-projects.vercel.app'; const custodyRequest = Functions.makeHttpRequest({ url: `${CUSTODY_API}/getAssetPrice`, method: 'POST', headers: { 'Content-Type': 'application/json' }, data: { assetAddress } }); const response = await custodyRequest; if (response.error) { throw Error('Request failed'); } const price = response.data.price; return Functions.encodeUint256(price);\"",
        "\"const CUSTODY_API = 'https://gar-apis-akhgun4t8-sarvagnakadiyas-projects.vercel.app'; const response = await Functions.makeHttpRequest({ url: `${CUSTODY_API}/getTotalYield`, method: 'GET', headers: { 'Content-Type': 'application/json' } }); if (response.error) throw Error('Yield request failed'); return Functions.encodeUint256(response.data.totalYield);\"",
        "0x39ee4747908925f7e52767Bd26CD602e8C50Ce62"
      ],
      "transaction": {
        "from": "0x1312c13bdba3edfdd89706fc47653b0ded6c7b42",
        "gas": "0x38e66f",
        "value": "0x0",
        "input": "0x60a060405234801561001057600080fd5b5060405161283038038061283083398101604081905261002f91610259565b6001600160a01b038616608052600180546001600160401b0319166001600160401b038716179055600284905560036100688482610395565b5060046100758382610395565b50600580546001600160a01b0319166001600160a01b03831617905561009c6000336100d8565b506100c77fdf8b4c520ffe197c5343c6f5aec59570151ef9a492f2c624fd45ddde6135ec42336100d8565b505042600955506104539350505050565b6000828152602081815260408083206001600160a01b038516845290915281205460ff1661017a576000838152602081815260408083206001600160a01b03861684529091529020805460ff191660011790556101323390565b6001600160a01b0316826001600160a01b0316847f2f8788117e7eff1d82e926ec794901d17c78024a50270940304540a733656f0d60405160405180910390a450600161017e565b5060005b92915050565b80516001600160a01b038116811461019b57600080fd5b919050565b634e487b7160e01b600052604160045260246000fd5b600082601f8301126101c757600080fd5b81516001600160401b038111156101e0576101e06101a0565b604051601f8201601f19908116603f011681016001600160401b038111828210171561020e5761020e6101a0565b60405281815283820160200185101561022657600080fd5b60005b8281101561024557602081860181015183830182015201610229565b506000918101602001919091529392505050565b60008060008060008060c0878903121561027257600080fd5b61027b87610184565b60208801519096506001600160401b038116811461029857600080fd5b6040880151606089015191965094506001600160401b038111156102bb57600080fd5b6102c789828a016101b6565b608089015190945090506001600160401b038111156102e557600080fd5b6102f189828a016101b6565b92505061030060a08801610184565b90509295509295509295565b600181811c9082168061032057607f821691505b60208210810361034057634e487b7160e01b600052602260045260246000fd5b50919050565b601f82111561039057806000526020600020601f840160051c8101602085101561036d5750805b601f840160051c820191505b8181101561038d5760008155600101610379565b50505b505050565b81516001600160401b038111156103ae576103ae6101a0565b6103c2816103bc845461030c565b84610346565b6020601f8211600181146103f657600083156103de5750848201515b600019600385901b1c1916600184901b17845561038d565b600084815260208120601f198516915b828110156104265787850151825560209485019460019092019101610406565b50848210156104445786840151600019600387901b60f8161c191681555b50505050600190811b01905550565b6080516123bb61047560003960008181610549015261148201526123bb6000f3fe608060405234801561001057600080fd5b50600436106101f05760003560e01c80638a4adf241161010f578063cf294d5e116100a2578063e462334711610071578063e462334714610493578063f00cab43146104a6578063f5553a61146104cd578063f60ce3c4146104f457600080fd5b8063cf294d5e1461043e578063d539139314610446578063d547741f1461046d578063db0a46e21461048057600080fd5b8063b2470e5c116100de578063b2470e5c146103f7578063b543503e146103ff578063bed74c8414610412578063c8f33c911461043557600080fd5b80638a4adf24146103c05780638dbe7b9d146103d357806391d14854146103dc578063a217fddf146103ef57600080fd5b806336568abe1161018757806365f3dca11161015657806365f3dca11461035457806367e828bf1461037b5780637aaf53e61461039057806389ac4147146103b757600080fd5b806336568abe1461031e5780634ab9ebb4146103315780634e1aa9ef146103395780635a109d1d1461034157600080fd5b80632795ad20116101c35780632795ad201461028e578063282c51f3146102cf5780632a0acc6a146102f65780632f2ff15d1461030b57600080fd5b806301ffc9a7146101f557806309c1ba2e1461021d5780630ca7617514610248578063248a9ca31461025d575b600080fd5b610208610203366004611ba7565b610507565b60405190151581526020015b60405180910390f35b600154610230906001600160401b031681565b6040516001600160401b039091168152602001610214565b61025b610256366004611c92565b61053e565b005b61028061026b366004611d02565b60009081526020819052604090206001015490565b604051908152602001610214565b6102b761029c366004611d02565b6007602052600090815260409020546001600160a01b031681565b6040516001600160a01b039091168152602001610214565b6102807f3c11d16cbaffd01df69ce1c404f6340ee057498f5f00246190ea54220576a84881565b61028060008051602061236683398151915281565b61025b610319366004611d30565b6105c2565b61025b61032c366004611d30565b6105ed565b61025b610625565b61025b610786565b61025b61034f366004611d60565b610880565b6102807f9dbcece9015efd1c7df02e29f525d623fbf0c02265c5fb75781cfe09348d68e381565b6103836108c2565b6040516102149190611e2b565b6102807f16dc53b3cf28c2b02b14673acc8879be1e6224dcbf181df0d67ea77671cbeeca81565b61028061070881565b6005546102b7906001600160a01b031681565b61028060025481565b6102086103ea366004611d30565b610950565b610280600081565b610383610979565b61025b61040d366004611e3e565b610986565b610208610420366004611d02565b60086020526000908152604090205460ff1681565b61028060095481565b6102806109c1565b6102807f9f2df0fed2c77648de5860a4cc508cd0818c85b8b8a1ab4ceeef8d981c8956a681565b61025b61047b366004611d30565b610ba3565b61038361048e366004611e3e565b610bc8565b6102806104a1366004611e3e565b610be1565b6102807fd3eedd6d69d410e954f4c622838ecc3acae9fdcd83cad412075c85b09277065681565b6102807fa8a8f4780603bbbfdfebdc9931f6249304ac3cdca694b22384be7e118f92c8fd81565b61025b610502366004611e5b565b610d74565b60006001600160e01b03198216637965db0b60e01b148061053857506301ffc9a760e01b6001600160e01b03198316145b92915050565b336001600160a01b037f000000000000000000000000000000000000000000000000000000000000000016146105875760405163c6829f8360e01b815260040160405180910390fd5b610592838383610d98565b60405183907f85e1543bf2f84fe80c6badbce3648c8539ad1df4d2b3d822938ca0538be727e690600090a2505050565b6000828152602081905260409020600101546105dd81611003565b6105e78383611010565b50505050565b6001600160a01b03811633146106165760405163334bd91960e11b815260040160405180910390fd5b61062082826110a2565b505050565b6107086009546106359190611eb9565b4210156106805760405162461bcd60e51b8152602060048201526014602482015273546f6f206561726c7920666f722075706461746560601b60448201526064015b60405180910390fd5b600554604080516306ecb81760e31b815290516000926001600160a01b031691633765c0b891600480830192869291908290030181865afa1580156106c9573d6000803e3d6000fd5b505050506040513d6000823e601f3d908101601f191682016040526106f19190810190611ecc565b905060005b815181101561077e5760006006600084848151811061071757610717611f83565b60200260200101516001600160a01b03166001600160a01b03168152602001908152602001600020805461074a90611f99565b905011156107765761077482828151811061076757610767611f83565b6020026020010151610be1565b505b6001016106f6565b505042600955565b600554604080516306ecb81760e31b815290516000926001600160a01b031691633765c0b891600480830192869291908290030181865afa1580156107cf573d6000803e3d6000fd5b505050506040513d6000823e601f3d908101601f191682016040526107f79190810190611ecc565b905060005b81518110156108775760006006600084848151811061081d5761081d611f83565b60200260200101516001600160a01b03166001600160a01b03168152602001908152602001600020805461085090611f99565b9050111561086f5761086d82828151811061076757610767611f83565b505b6001016107fc565b5061077e6109c1565b60008051602061236683398151915261089881611003565b6001600160a01b03841660009081526006602052604090206108bb83858361201a565b5050505050565b600380546108cf90611f99565b80601f01602080910402602001604051908101604052809291908181526020018280546108fb90611f99565b80156109485780601f1061091d57610100808354040283529160200191610948565b820191906000526020600020905b81548152906001019060200180831161092b57829003601f168201915b505050505081565b6000918252602082815260408084206001600160a01b0393909316845291905290205460ff1690565b600480546108cf90611f99565b60008051602061236683398151915261099e81611003565b50600580546001600160a01b0319166001600160a01b0392909216919091179055565b600080600480546109d190611f99565b905011610a175760405162461bcd60e51b8152602060048201526014602482015273165a595b19081cdbdd5c98d9481b9bdd081cd95d60621b6044820152606401610677565b610a586040805160e0810190915280600081526020016000815260200160008152602001606081526020016060815260200160608152602001606081525090565b610afa60008060048054610a6b90611f99565b80601f0160208091040260200160405190810160405280929190818152602001828054610a9790611f99565b8015610ae45780601f10610ab957610100808354040283529160200191610ae4565b820191906000526020600020905b815481529060010190602001808311610ac757829003601f168201915b50505050508461110d909392919063ffffffff16565b6040805160008082526020820190925281610b25565b6060815260200190600190039081610b105790505b509050610b32828261118b565b610b5a610b3e836111b5565b6001546002546001600160401b0390911690620493e09061147d565b600081815260086020526040808220805460ff191660011790555191945084917fa6ac4d71c8189735b09ab681c65fd9350a2b69407ab2c25dc44ea86dd505d4aa9190a2505090565b600082815260208190526040902060010154610bbe81611003565b6105e783836110a2565b600660205260009081526040902080546108cf90611f99565b6001600160a01b03811660009081526006602052604081208054829190610c0790611f99565b905011610c4d5760405162461bcd60e51b8152602060048201526014602482015273105cdcd95d081b9bdd081c9959da5cdd195c995960621b6044820152606401610677565b610c8e6040805160e0810190915280600081526020016000815260200160008152602001606081526020016060815260200160608152602001606081525090565b610ca160008060038054610a6b90611f99565b604080516001808252818301909252600091816020015b6060815260200190600190039081610cb8579050509050610ce3846001600160a01b0316601461154f565b81600081518110610cf657610cf6611f83565b6020908102919091010152610d0b828261118b565b610d17610b3e836111b5565b60008181526007602052604080822080546001600160a01b0319166001600160a01b03891690811790915590519295509185917ff024512984fa71067a7d61ce045c438634193942ad63784eb0fe76499e80f54a91a35050919050565b600080516020612366833981519152610d8c81611003565b600361062083826120d9565b805115610db9578060405162461bcd60e51b81526004016106779190611e2b565b60008381526008602052604090205460ff1615610ea25760008381526008602090815260408220805460ff191690558351610dfb919085018101908501612197565b90508015610e62576005546040516376e1120b60e01b8152600481018390526001600160a01b03909116906376e1120b90602401600060405180830381600087803b158015610e4957600080fd5b505af1158015610e5d573d6000803e3d6000fd5b505050505b837f6db2066d48a942fb324d55605e2038c0adb1b4f1f65c2a8f13d63f8653e3b97582604051610e9491815260200190565b60405180910390a250505050565b6000838152600760205260409020546001600160a01b0316610efa5760405162461bcd60e51b815260206004820152601160248201527014995c5d595cdd081b9bdd08199bdd5b99607a1b6044820152606401610677565b6000838152600760209081526040822080546001600160a01b0319811690915584516001600160a01b039091169291610f399186018101908601612197565b90506000610f4f82670de0b6b3a76400006121b0565b600554604051631c2b190360e01b81526001600160a01b03868116600483015260248201849052929350911690631c2b190390604401600060405180830381600087803b158015610f9f57600080fd5b505af1158015610fb3573d6000803e3d6000fd5b50505050826001600160a01b0316867f6fb5b564450c211a6d50095662a64ca2c6b0db85f8d5df73eee89bcd7ffd389a84604051610ff391815260200190565b60405180910390a3505050505050565b61100d81336116ce565b50565b600061101c8383610950565b61109a576000838152602081815260408083206001600160a01b03861684529091529020805460ff191660011790556110523390565b6001600160a01b0316826001600160a01b0316847f2f8788117e7eff1d82e926ec794901d17c78024a50270940304540a733656f0d60405160405180910390a4506001610538565b506000610538565b60006110ae8383610950565b1561109a576000838152602081815260408083206001600160a01b0386168085529252808320805460ff1916905551339286917ff6391f5c32d9c69d2a47ea670b442974b53935d1edc7fd64eb21e047a839171b9190a4506001610538565b805160000361112f576040516322ce3edd60e01b815260040160405180910390fd5b83836002811115611142576111426121c7565b90816002811115611155576111556121c7565b9052506040840182801561116b5761116b6121c7565b9081801561117b5761117b6121c7565b9052506060909301929092525050565b80516000036111ad5760405163fe936cb760e01b815260040160405180910390fd5b60a090910152565b606060006111c461010061170b565b90506111fd6040518060400160405280600c81526020016b31b7b232a637b1b0ba34b7b760a11b8152508261172c90919063ffffffff16565b825161121b906002811115611214576112146121c7565b8290611745565b6040805180820190915260088152676c616e677561676560c01b602082015261124590829061172c565b604083015161125c908015611214576112146121c7565b604080518082019091526006815265736f7572636560d01b602082015261128490829061172c565b606083015161129490829061172c565b60a08301515115611320576040805180820190915260048152636172677360e01b60208201526112c590829061172c565b6112ce8161177e565b60005b8360a00151518110156113165761130e8460a0015182815181106112f7576112f7611f83565b60200260200101518361172c90919063ffffffff16565b6001016112d1565b50611320816117a2565b608083015151156113e457600083602001516002811115611343576113436121c7565b036113615760405163a80d31f760e01b815260040160405180910390fd5b60408051808201909152600f81526e39b2b1b932ba39a637b1b0ba34b7b760891b602082015261139290829061172c565b6113ab83602001516002811115611214576112146121c7565b6040805180820190915260078152667365637265747360c81b60208201526113d490829061172c565b60808301516113e49082906117c0565b60c083015151156114755760408051808201909152600981526862797465734172677360b81b602082015261141a90829061172c565b6114238161177e565b60005b8360c001515181101561146b576114638460c00151828151811061144c5761144c611f83565b6020026020010151836117c090919063ffffffff16565b600101611426565b50611475816117a2565b515192915050565b6000807f00000000000000000000000000000000000000000000000000000000000000006001600160a01b031663461d27628688600188886040518663ffffffff1660e01b81526004016114d59594939291906121dd565b6020604051808303816000875af11580156114f4573d6000803e3d6000fd5b505050506040513d601f19601f820116820180604052508101906115189190612197565b60405190915081907f1131472297a800fee664d1d89cfa8f7676ff07189ecc53f80bbb5f4969099db890600090a295945050505050565b606082600061155f8460026121b0565b61156a906002611eb9565b6001600160401b0381111561158157611581611bd1565b6040519080825280601f01601f1916602001820160405280156115ab576020820181803683370190505b509050600360fc1b816000815181106115c6576115c6611f83565b60200101906001600160f81b031916908160001a905350600f60fb1b816001815181106115f5576115f5611f83565b60200101906001600160f81b031916908160001a90535060006116198560026121b0565b611624906001611eb9565b90505b600181111561169c576f181899199a1a9b1b9c1cb0b131b232b360811b83600f166010811061165857611658611f83565b1a60f81b82828151811061166e5761166e611f83565b60200101906001600160f81b031916908160001a90535060049290921c9161169581612226565b9050611627565b5081156116c65760405163e22e27eb60e01b81526004810186905260248101859052604401610677565b949350505050565b6116d88282610950565b6117075760405163e2517d3f60e01b81526001600160a01b038216600482015260248101839052604401610677565b5050565b611713611b72565b805161171f90836117cd565b5060006020820152919050565b6117398260038351611844565b8151610620908261195d565b81516117529060c2611985565b50611707828260405160200161176a91815260200190565b6040516020818303038152906040526117c0565b6117898160046119ee565b60018160200181815161179c9190611eb9565b90525050565b6117ad8160076119ee565b60018160200181815161179c919061223d565b6117398260028351611844565b6040805180820190915260608152600060208201526117ed602083612250565b15611815576117fd602083612250565b61180890602061223d565b6118129083611eb9565b91505b60208084018390526040518085526000815290818401018181101561183957600080fd5b604052509192915050565b6017816001600160401b03161161186a5782516105e79060e0600585901b168317611985565b60ff816001600160401b0316116118aa578251611892906018611fe0600586901b1617611985565b5082516105e7906001600160401b0383166001611a05565b61ffff816001600160401b0316116118eb5782516118d3906019611fe0600586901b1617611985565b5082516105e7906001600160401b0383166002611a05565b63ffffffff816001600160401b03161161192e57825161191690601a611fe0600586901b1617611985565b5082516105e7906001600160401b0383166004611a05565b825161194590601b611fe0600586901b1617611985565b5082516105e7906001600160401b0383166008611a05565b60408051808201909152606081526000602082015261197e83838451611a8a565b9392505050565b60408051808201909152606081526000602082015282515160006119aa826001611eb9565b9050846020015182106119cb576119cb856119c68360026121b0565b611b5b565b84516020838201018581535080518211156119e4578181525b5093949350505050565b815161062090601f611fe0600585901b1617611985565b6040805180820190915260608152600060208201528351516000611a298285611eb9565b90508560200151811115611a4657611a46866119c68360026121b0565b60006001611a5686610100612359565b611a60919061223d565b90508651828101878319825116178152508051831115611a7e578281525b50959695505050505050565b6040805180820190915260608152600060208201528251821115611aad57600080fd5b8351516000611abc8483611eb9565b90508560200151811115611ad957611ad9866119c68360026121b0565b855180518382016020019160009180851115611af3578482525b505050602086015b60208610611b335780518252611b12602083611eb9565b9150611b1f602082611eb9565b9050611b2c60208761223d565b9550611afb565b51815160001960208890036101000a0190811690199190911617905250849150509392505050565b8151611b6783836117cd565b506105e7838261195d565b6040518060400160405280611b9a604051806040016040528060608152602001600081525090565b8152602001600081525090565b600060208284031215611bb957600080fd5b81356001600160e01b03198116811461197e57600080fd5b634e487b7160e01b600052604160045260246000fd5b604051601f8201601f191681016001600160401b0381118282101715611c0f57611c0f611bd1565b604052919050565b6000806001600160401b03841115611c3157611c31611bd1565b50601f8301601f1916602001611c4681611be7565b915050828152838383011115611c5b57600080fd5b828260208301376000602084830101529392505050565b600082601f830112611c8357600080fd5b61197e83833560208501611c17565b600080600060608486031215611ca757600080fd5b8335925060208401356001600160401b03811115611cc457600080fd5b611cd086828701611c72565b92505060408401356001600160401b03811115611cec57600080fd5b611cf886828701611c72565b9150509250925092565b600060208284031215611d1457600080fd5b5035919050565b6001600160a01b038116811461100d57600080fd5b60008060408385031215611d4357600080fd5b823591506020830135611d5581611d1b565b809150509250929050565b600080600060408486031215611d7557600080fd5b8335611d8081611d1b565b925060208401356001600160401b03811115611d9b57600080fd5b8401601f81018613611dac57600080fd5b80356001600160401b03811115611dc257600080fd5b866020828401011115611dd457600080fd5b939660209190910195509293505050565b6000815180845260005b81811015611e0b57602081850181015186830182015201611def565b506000602082860101526020601f19601f83011685010191505092915050565b60208152600061197e6020830184611de5565b600060208284031215611e5057600080fd5b813561197e81611d1b565b600060208284031215611e6d57600080fd5b81356001600160401b03811115611e8357600080fd5b8201601f81018413611e9457600080fd5b6116c684823560208401611c17565b634e487b7160e01b600052601160045260246000fd5b8082018082111561053857610538611ea3565b600060208284031215611ede57600080fd5b81516001600160401b03811115611ef457600080fd5b8201601f81018413611f0557600080fd5b80516001600160401b03811115611f1e57611f1e611bd1565b8060051b611f2e60208201611be7565b91825260208184018101929081019087841115611f4a57600080fd5b6020850194505b83851015611f785784519250611f6683611d1b565b82825260209485019490910190611f51565b979650505050505050565b634e487b7160e01b600052603260045260246000fd5b600181811c90821680611fad57607f821691505b602082108103611fcd57634e487b7160e01b600052602260045260246000fd5b50919050565b601f82111561062057806000526020600020601f840160051c81016020851015611ffa5750805b601f840160051c820191505b818110156108bb5760008155600101612006565b6001600160401b0383111561203157612031611bd1565b6120458361203f8354611f99565b83611fd3565b6000601f84116001811461207957600085156120615750838201355b600019600387901b1c1916600186901b1783556108bb565b600083815260209020601f19861690835b828110156120aa578685013582556020948501946001909201910161208a565b50868210156120c75760001960f88860031b161c19848701351681555b505060018560011b0183555050505050565b81516001600160401b038111156120f2576120f2611bd1565b612106816121008454611f99565b84611fd3565b6020601f82116001811461213a57600083156121225750848201515b600019600385901b1c1916600184901b1784556108bb565b600084815260208120601f198516915b8281101561216a578785015182556020948501946001909201910161214a565b50848210156121885786840151600019600387901b60f8161c191681555b50505050600190811b01905550565b6000602082840312156121a957600080fd5b5051919050565b808202811582820484141761053857610538611ea3565b634e487b7160e01b600052602160045260246000fd5b6001600160401b038616815260a0602082015260006121ff60a0830187611de5565b61ffff9590951660408301525063ffffffff92909216606083015260809091015292915050565b60008161223557612235611ea3565b506000190190565b8181038181111561053857610538611ea3565b60008261226d57634e487b7160e01b600052601260045260246000fd5b500690565b6001815b60018411156122ad5780850481111561229157612291611ea3565b600184161561229f57908102905b60019390931c928002612276565b935093915050565b6000826122c457506001610538565b816122d157506000610538565b81600181146122e757600281146122f15761230d565b6001915050610538565b60ff84111561230257612302611ea3565b50506001821b610538565b5060208310610133831016604e8410600b8410161715612330575081810a610538565b61233d6000198484612272565b806000190482111561235157612351611ea3565b029392505050565b600061197e83836122b556fedf8b4c520ffe197c5343c6f5aec59570151ef9a492f2c624fd45ddde6135ec42a26469706673582212203d700b5b106c4f7971f3efb0901b0576c6688a4a1fe5a9d62771fe203115253664736f6c634300081e0033000000000000000000000000f9b8fc078197181c841c296c876945aaa425b278000000000000000000000000000000000000000000000000000000000000018266756e2d626173652d7365706f6c69612d31000000000000000000000000000000000000000000000000000000000000000000000000000000000000000000c000000000000000000000000000000000000000000000000000000000000002e000000000000000000000000039ee4747908925f7e52767bd26cd602e8c50ce6200000000000000000000000000000000000000000000000000000000000001ff636f6e737420617373657441646472657373203d20617267735b305d207c7c2027307862446366424564333138383034303932366262456142443730613235634662453038314634323864273b20636f6e737420435553544f44595f415049203d202768747470733a2f2f6761722d617069732d616b6867756e3474382d7361727661676e616b6164697961732d70726f6a656374732e76657263656c2e617070273b20636f6e737420637573746f647952657175657374203d2046756e6374696f6e732e6d616b654874747052657175657374287b2075726c3a2060247b435553544f44595f4150497d2f67657441737365745072696365602c206d6574686f643a2027504f5354272c20686561646572733a207b2027436f6e74656e742d54797065273a20276170706c69636174696f6e2f6a736f6e27207d2c20646174613a207b20617373657441646472657373207d207d293b20636f6e737420726573706f6e7365203d20617761697420637573746f6479526571756573743b2069662028726573706f6e73652e6572726f7229207b207468726f77204572726f72282752657175657374206661696c656427293b207d20636f6e7374207072696365203d20726573706f6e73652e646174612e70726963653b2072657475726e2046756e6374696f6e732e656e636f646555696e74323536287072696365293b000000000000000000000000000000000000000000000000000000000000000163636f6e737420435553544f44595f415049203d202768747470733a2f2f6761722d617069732d616b6867756e3474382d7361727661676e616b6164697961732d70726f6a656374732e76657263656c2e617070273b20636f6e737420726573706f6e7365203d2061776169742046756e6374696f6e732e6d616b654874747052657175657374287b2075726c3a2060247b435553544f44595f4150497d2f676574546f74616c5969656c64602c206d6574686f643a2027474554272c20686561646572733a207b2027436f6e74656e742d54797065273a20276170706c69636174696f6e2f6a736f6e27207d207d293b2069662028726573706f6e73652e6572726f7229207468726f77204572726f7228275969656c642072657175657374206661696c656427293b2072657475726e2046756e6374696f6e732e656e636f646555696e7432353628726573706f6e73652e646174612e746f74616c5969656c64293b0000000000000000000000000000000000000000000000000000000000",
        "nonce": "0x30d",
        "chainId": "0x14a34"
      },
      "additionalContracts": [],
      "isFixedGasLimit": false
    },
    {
      "hash": "0x9f199ff349a8746e1b42f64b994a057f3f478b78405e754c87a66903baaf9e06",
      "transactionType": "CALL",
      "contractName": "VaultManager",
      "contractAddress": "0x39ee4747908925f7e52767bd26cd602e8c50ce62",
      "function": "grantSentinelRole(address)",
      "arguments": [
        "0xdE4A516f29339089c21B79DFD40a7f50D22414c9"
      ],
      "transaction": {
        "from": "0x1312c13bdba3edfdd89706fc47653b0ded6c7b42",
        "to": "0x39ee4747908925f7e52767bd26cd602e8c50ce62",
        "gas": "0x107c2",
        "value": "0x0",
        "input": "0x69245ad7000000000000000000000000de4a516f29339089c21b79dfd40a7f50d22414c9",
        "nonce": "0x30e",
        "chainId": "0x14a34"
      },
      "additionalContracts": [],
      "isFixedGasLimit": false
    },
    {
      "hash": "0x8df3c41ab7e0ed5a4dd7ded4b4ec4af5e9673d5461df4dd2c11f535bca287720",
      "transactionType": "CALL",
      "contractName": "VaultManager",
      "contractAddress": "0x39ee4747908925f7e52767bd26cd602e8c50ce62",
      "function": "addAsset(address,uint256)",
      "arguments": [
        "0x3dbb0344f6C2Fe6122179Cc3795A3eB10Be458dc",
        "500"
      ],
      "transaction": {
        "from": "0x1312c13bdba3edfdd89706fc47653b0ded6c7b42",
        "to": "0x39ee4747908925f7e52767bd26cd602e8c50ce62",
        "gas": "0x15382",
        "value": "0x0",
        "input": "0x66a6a4bd0000000000000000000000003dbb0344f6c2fe6122179cc3795a3eb10be458dc00000000000000000000000000000000000000000000000000000000000001f4",
        "nonce": "0x30f",
        "chainId": "0x14a34"
      },
      "additionalContracts": [],
      "isFixedGasLimit": false
    },
    {
      "hash": "0xad85d0f63891be90c765c5a7db253f56659f31f4e341db8c7259bcc8891d19e3",
      "transactionType": "CALL",
      "contractName": "VaultManager",
      "contractAddress": "0x39ee4747908925f7e52767bd26cd602e8c50ce62",
      "function": "addAsset(address,uint256)",
      "arguments": [
        "0x50F3660D13E12eb9cAb75df95305B404E6d2d506",
        "1000"
      ],
      "transaction": {
        "from": "0x1312c13bdba3edfdd89706fc47653b0ded6c7b42",
        "to": "0x39ee4747908925f7e52767bd26cd602e8c50ce62",
        "gas": "0x15382",
        "value": "0x0",
        "input": "0x66a6a4bd00000000000000000000000050f3660d13e12eb9cab75df95305b404e6d2d50600000000000000000000000000000000000000000000000000000000000003e8",
        "nonce": "0x310",
        "chainId": "0x14a34"
      },
      "additionalContracts": [],
      "isFixedGasLimit": false
    },
    {
      "hash": "0xe9557efc00adbab62629606ffb97620c78c245816828c2808119540e2a77bd6d",
      "transactionType": "CALL",
      "contractName": "VaultManager",
      "contractAddress": "0x39ee4747908925f7e52767bd26cd602e8c50ce62",
      "function": "addAsset(address,uint256)",
      "arguments": [
        "0x69617a40EA29Aabc6BCd151865cfC62e30b67012",
        "200"
      ],
      "transaction": {
        "from": "0x1312c13bdba3edfdd89706fc47653b0ded6c7b42",
        "to": "0x39ee4747908925f7e52767bd26cd602e8c50ce62",
        "gas": "0x1676a",
        "value": "0x0",
        "input": "0x66a6a4bd00000000000000000000000069617a40ea29aabc6bcd151865cfc62e30b6701200000000000000000000000000000000000000000000000000000000000000c8",
        "nonce": "0x311",
        "chainId": "0x14a34"
      },
      "additionalContracts": [],
      "isFixedGasLimit": false
    },
    {
      "hash": "0xdbeb99c42c96b73e9a40d2261310858d674d7482d35a646abd30540155768dfd",
      "transactionType": "CALL",
      "contractName": "NavOracle",
      "contractAddress": "0xde4a516f29339089c21b79dfd40a7f50d22414c9",
      "function": "addAsset(address,string)",
      "arguments": [
        "0x3dbb0344f6C2Fe6122179Cc3795A3eB10Be458dc",
        "\"INR-SGB\""
      ],
      "transaction": {
        "from": "0x1312c13bdba3edfdd89706fc47653b0ded6c7b42",
        "to": "0xde4a516f29339089c21b79dfd40a7f50d22414c9",
        "gas": "0x10f94",
        "value": "0x0",
        "input": "0x5a109d1d0000000000000000000000003dbb0344f6c2fe6122179cc3795a3eb10be458dc00000000000000000000000000000000000000000000000000000000000000400000000000000000000000000000000000000000000000000000000000000007494e522d53474200000000000000000000000000000000000000000000000000",
        "nonce": "0x312",
        "chainId": "0x14a34"
      },
      "additionalContracts": [],
      "isFixedGasLimit": false
    },
    {
      "hash": "0x49a639c12e7babd6d558e823707756744738a867eb1e91ef2f761e893e97d156",
      "transactionType": "CALL",
      "contractName": "NavOracle",
      "contractAddress": "0xde4a516f29339089c21b79dfd40a7f50d22414c9",
      "function": "addAsset(address,string)",
      "arguments": [
        "0x50F3660D13E12eb9cAb75df95305B404E6d2d506",
        "\"INR-CORP\""
      ],
      "transaction": {
        "from": "0x1312c13bdba3edfdd89706fc47653b0ded6c7b42",
        "to": "0xde4a516f29339089c21b79dfd40a7f50d22414c9",
        "gas": "0x1008d",
        "value": "0x0",
        "input": "0x5a109d1d00000000000000000000000050f3660d13e12eb9cab75df95305b404e6d2d50600000000000000000000000000000000000000000000000000000000000000400000000000000000000000000000000000000000000000000000000000000008494e522d434f5250000000000000000000000000000000000000000000000000",
        "nonce": "0x313",
        "chainId": "0x14a34"
      },
      "additionalContracts": [],
      "isFixedGasLimit": false
    },
    {
      "hash": "0x8342f5947a4a285398019bda56fd4d7f1d02e92104b14356aad102f4d79e7959",
      "transactionType": "CALL",
      "contractName": "NavOracle",
      "contractAddress": "0xde4a516f29339089c21b79dfd40a7f50d22414c9",
      "function": "addAsset(address,string)",
      "arguments": [
        "0x69617a40EA29Aabc6BCd151865cfC62e30b67012",
        "\"INR-MFD\""
      ],
      "transaction": {
        "from": "0x1312c13bdba3edfdd89706fc47653b0ded6c7b42",
        "to": "0xde4a516f29339089c21b79dfd40a7f50d22414c9",
        "gas": "0x10f94",
        "value": "0x0",
        "input": "0x5a109d1d00000000000000000000000069617a40ea29aabc6bcd151865cfc62e30b6701200000000000000000000000000000000000000000000000000000000000000400000000000000000000000000000000000000000000000000000000000000007494e522d4d464400000000000000000000000000000000000000000000000000",
        "nonce": "0x314",
        "chainId": "0x14a34"
      },
      "additionalContracts": [],
      "isFixedGasLimit": false
    }
  ],
  "receipts": [
    {
      "status": "0x1",
      "cumulativeGasUsed": "0xaaaa66",
      "logs": [
        {
          "address": "0xde4a516f29339089c21b79dfd40a7f50d22414c9",
          "topics": [
            "0x2f8788117e7eff1d82e926ec794901d17c78024a50270940304540a733656f0d",
            "0x0000000000000000000000000000000000000000000000000000000000000000",
            "0x0000000000000000000000001312c13bdba3edfdd89706fc47653b0ded6c7b42",
            "0x0000000000000000000000001312c13bdba3edfdd89706fc47653b0ded6c7b42"
          ],
          "data": "0x",
          "blockHash": "0xe2edb9351a426f91d2f1d08804094ebb6241f9c9f4d265a918ca87984550ea97",
          "blockNumber": "0x1a70064",
          "blockTimestamp": "0x68615fa8",
          "transactionHash": "0xa0975d1f9406676a53c350fdb3da779f5f740aba1d4654c431d8c39315bc22d5",
          "transactionIndex": "0x19",
          "logIndex": "0xe9",
          "removed": false
        },
        {
          "address": "0xde4a516f29339089c21b79dfd40a7f50d22414c9",
          "topics": [
            "0x2f8788117e7eff1d82e926ec794901d17c78024a50270940304540a733656f0d",
            "0xdf8b4c520ffe197c5343c6f5aec59570151ef9a492f2c624fd45ddde6135ec42",
            "0x0000000000000000000000001312c13bdba3edfdd89706fc47653b0ded6c7b42",
            "0x0000000000000000000000001312c13bdba3edfdd89706fc47653b0ded6c7b42"
          ],
          "data": "0x",
          "blockHash": "0xe2edb9351a426f91d2f1d08804094ebb6241f9c9f4d265a918ca87984550ea97",
          "blockNumber": "0x1a70064",
          "blockTimestamp": "0x68615fa8",
          "transactionHash": "0xa0975d1f9406676a53c350fdb3da779f5f740aba1d4654c431d8c39315bc22d5",
          "transactionIndex": "0x19",
          "logIndex": "0xea",
          "removed": false
        }
      ],
      "logsBloom": "0x00000004000000000000000000000000000000000000000000000000000000200000000000000000000000000000000000000000000000000000000000000000000000000000000000000000000000000000000000000000020000000000000000000000020000200000008000000800000000000000000004000000000000000000000000000000000000000000000000000000000000000000000000000000000000000000000000000000100000000000000000000000001000000000000000000000000000000000000000000000000000000000000100000000000020000000000000100000000000000000010000000000000000000000040000000000",
      "type": "0x2",
      "transactionHash": "0xa0975d1f9406676a53c350fdb3da779f5f740aba1d4654c431d8c39315bc22d5",
      "transactionIndex": "0x19",
      "blockHash": "0xe2edb9351a426f91d2f1d08804094ebb6241f9c9f4d265a918ca87984550ea97",
      "blockNumber": "0x1a70064",
      "gasUsed": "0x2bc7bf",
      "effectiveGasPrice": "0xf42d3",
      "from": "0x1312c13bdba3edfdd89706fc47653b0ded6c7b42",
      "to": null,
      "contractAddress": "0xde4a516f29339089c21b79dfd40a7f50d22414c9",
      "l1BaseFeeScalar": "0x44d",
      "l1BlobBaseFee": "0x1",
      "l1BlobBaseFeeScalar": "0xa118b",
      "l1Fee": "0xa07236de",
      "l1GasPrice": "0x16697c3",
      "l1GasUsed": "0x19663"
    },
    {
      "status": "0x1",
      "cumulativeGasUsed": "0xab695b",
      "logs": [
        {
          "address": "0x39ee4747908925f7e52767bd26cd602e8c50ce62",
          "topics": [
            "0x2f8788117e7eff1d82e926ec794901d17c78024a50270940304540a733656f0d",
            "0xd3eedd6d69d410e954f4c622838ecc3acae9fdcd83cad412075c85b092770656",
            "0x000000000000000000000000de4a516f29339089c21b79dfd40a7f50d22414c9",
            "0x0000000000000000000000001312c13bdba3edfdd89706fc47653b0ded6c7b42"
          ],
          "data": "0x",
          "blockHash": "0xe2edb9351a426f91d2f1d08804094ebb6241f9c9f4d265a918ca87984550ea97",
          "blockNumber": "0x1a70064",
          "blockTimestamp": "0x68615fa8",
          "transactionHash": "0x9f199ff349a8746e1b42f64b994a057f3f478b78405e754c87a66903baaf9e06",
          "transactionIndex": "0x1a",
          "logIndex": "0xeb",
          "removed": false
        }
      ],
      "logsBloom": "0x00000004000000000000000000000000000040000000000000000000000004000000000000000000000000000000000000000000000000000000000000800000000000000000000000000000000000000000000000000000000000008000000000000000000000000000000000000000000000000000080000000000000000000800000000000000000000000000000000000000000000000000000000000000000000000000000000000000000000000000000000000000001000000100000000000000000000000000000400000000000000000000000100000000000000000040000000100000000000000000010000000000000000000000040000000000",
      "type": "0x2",
      "transactionHash": "0x9f199ff349a8746e1b42f64b994a057f3f478b78405e754c87a66903baaf9e06",
      "transactionIndex": "0x1a",
      "blockHash": "0xe2edb9351a426f91d2f1d08804094ebb6241f9c9f4d265a918ca87984550ea97",
      "blockNumber": "0x1a70064",
      "gasUsed": "0xbef5",
      "effectiveGasPrice": "0xf42d3",
      "from": "0x1312c13bdba3edfdd89706fc47653b0ded6c7b42",
      "to": "0x39ee4747908925f7e52767bd26cd602e8c50ce62",
      "contractAddress": null,
      "l1BaseFeeScalar": "0x44d",
      "l1BlobBaseFee": "0x1",
      "l1BlobBaseFeeScalar": "0xa118b",
      "l1Fee": "0x277b2b7",
      "l1GasPrice": "0x16697c3",
      "l1GasUsed": "0x640"
    },
    {
      "status": "0x1",
      "cumulativeGasUsed": "0xac5f28",
      "logs": [],
      "logsBloom": "0x00000000000000000000000000000000000000000000000000000000000000000000000000000000000000000000000000000000000000000000000000000000000000000000000000000000000000000000000000000000000000000000000000000000000000000000000000000000000000000000000000000000000000000000000000000000000000000000000000000000000000000000000000000000000000000000000000000000000000000000000000000000000000000000000000000000000000000000000000000000000000000000000000000000000000000000000000000000000000000000000000000000000000000000000000000000",
      "type": "0x2",
      "transactionHash": "0x8df3c41ab7e0ed5a4dd7ded4b4ec4af5e9673d5461df4dd2c11f535bca287720",
      "transactionIndex": "0x1b",
      "blockHash": "0xe2edb9351a426f91d2f1d08804094ebb6241f9c9f4d265a918ca87984550ea97",
      "blockNumber": "0x1a70064",
      "gasUsed": "0xf5cd",
      "effectiveGasPrice": "0xf42d3",
      "from": "0x1312c13bdba3edfdd89706fc47653b0ded6c7b42",
      "to": "0x39ee4747908925f7e52767bd26cd602e8c50ce62",
      "contractAddress": null,
      "l1BaseFeeScalar": "0x44d",
      "l1BlobBaseFee": "0x1",
      "l1BlobBaseFeeScalar": "0xa118b",
      "l1Fee": "0x277b2b7",
      "l1GasPrice": "0x16697c3",
      "l1GasUsed": "0x640"
    },
    {
      "status": "0x1",
      "cumulativeGasUsed": "0xad54f5",
      "logs": [],
      "logsBloom": "0x00000000000000000000000000000000000000000000000000000000000000000000000000000000000000000000000000000000000000000000000000000000000000000000000000000000000000000000000000000000000000000000000000000000000000000000000000000000000000000000000000000000000000000000000000000000000000000000000000000000000000000000000000000000000000000000000000000000000000000000000000000000000000000000000000000000000000000000000000000000000000000000000000000000000000000000000000000000000000000000000000000000000000000000000000000000",
      "type": "0x2",
      "transactionHash": "0xad85d0f63891be90c765c5a7db253f56659f31f4e341db8c7259bcc8891d19e3",
      "transactionIndex": "0x1c",
      "blockHash": "0xe2edb9351a426f91d2f1d08804094ebb6241f9c9f4d265a918ca87984550ea97",
      "blockNumber": "0x1a70064",
      "gasUsed": "0xf5cd",
      "effectiveGasPrice": "0xf42d3",
      "from": "0x1312c13bdba3edfdd89706fc47653b0ded6c7b42",
      "to": "0x39ee4747908925f7e52767bd26cd602e8c50ce62",
      "contractAddress": null,
      "l1BaseFeeScalar": "0x44d",
      "l1BlobBaseFee": "0x1",
      "l1BlobBaseFeeScalar": "0xa118b",
      "l1Fee": "0x277b2b7",
      "l1GasPrice": "0x16697c3",
      "l1GasUsed": "0x640"
    },
    {
      "status": "0x1",
      "cumulativeGasUsed": "0xae4ab6",
      "logs": [],
      "logsBloom": "0x00000000000000000000000000000000000000000000000000000000000000000000000000000000000000000000000000000000000000000000000000000000000000000000000000000000000000000000000000000000000000000000000000000000000000000000000000000000000000000000000000000000000000000000000000000000000000000000000000000000000000000000000000000000000000000000000000000000000000000000000000000000000000000000000000000000000000000000000000000000000000000000000000000000000000000000000000000000000000000000000000000000000000000000000000000000",
      "type": "0x2",
      "transactionHash": "0xe9557efc00adbab62629606ffb97620c78c245816828c2808119540e2a77bd6d",
      "transactionIndex": "0x1d",
      "blockHash": "0xe2edb9351a426f91d2f1d08804094ebb6241f9c9f4d265a918ca87984550ea97",
      "blockNumber": "0x1a70064",
      "gasUsed": "0xf5c1",
      "effectiveGasPrice": "0xf42d3",
      "from": "0x1312c13bdba3edfdd89706fc47653b0ded6c7b42",
      "to": "0x39ee4747908925f7e52767bd26cd602e8c50ce62",
      "contractAddress": null,
      "l1BaseFeeScalar": "0x44d",
      "l1BlobBaseFee": "0x1",
      "l1BlobBaseFeeScalar": "0xa118b",
      "l1Fee": "0x277b2b7",
      "l1GasPrice": "0x16697c3",
      "l1GasUsed": "0x640"
    },
    {
      "status": "0x1",
      "cumulativeGasUsed": "0xaf0468",
      "logs": [],
      "logsBloom": "0x00000000000000000000000000000000000000000000000000000000000000000000000000000000000000000000000000000000000000000000000000000000000000000000000000000000000000000000000000000000000000000000000000000000000000000000000000000000000000000000000000000000000000000000000000000000000000000000000000000000000000000000000000000000000000000000000000000000000000000000000000000000000000000000000000000000000000000000000000000000000000000000000000000000000000000000000000000000000000000000000000000000000000000000000000000000",
      "type": "0x2",
      "transactionHash": "0xdbeb99c42c96b73e9a40d2261310858d674d7482d35a646abd30540155768dfd",
      "transactionIndex": "0x1e",
      "blockHash": "0xe2edb9351a426f91d2f1d08804094ebb6241f9c9f4d265a918ca87984550ea97",
      "blockNumber": "0x1a70064",
      "gasUsed": "0xb9b2",
      "effectiveGasPrice": "0xf42d3",
      "from": "0x1312c13bdba3edfdd89706fc47653b0ded6c7b42",
      "to": "0xde4a516f29339089c21b79dfd40a7f50d22414c9",
      "contractAddress": null,
      "l1BaseFeeScalar": "0x44d",
      "l1BlobBaseFee": "0x1",
      "l1BlobBaseFeeScalar": "0xa118b",
      "l1Fee": "0x29a486f",
      "l1GasPrice": "0x16697c3",
      "l1GasUsed": "0x697"
    },
    {
      "status": "0x1",
      "cumulativeGasUsed": "0xb047b4",
      "logs": [],
      "logsBloom": "0x00000000000000000000000000000000000000000000000000000000000000000000000000000000000000000000000000000000000000000000000000000000000000000000000000000000000000000000000000000000000000000000000000000000000000000000000000000000000000000000000000000000000000000000000000000000000000000000000000000000000000000000000000000000000000000000000000000000000000000000000000000000000000000000000000000000000000000000000000000000000000000000000000000000000000000000000000000000000000000000000000000000000000000000000000000000",
      "type": "0x2",
      "transactionHash": "0x49a639c12e7babd6d558e823707756744738a867eb1e91ef2f761e893e97d156",
      "transactionIndex": "0x20",
      "blockHash": "0xe2edb9351a426f91d2f1d08804094ebb6241f9c9f4d265a918ca87984550ea97",
      "blockNumber": "0x1a70064",
      "gasUsed": "0xb9be",
      "effectiveGasPrice": "0xf42d3",
      "from": "0x1312c13bdba3edfdd89706fc47653b0ded6c7b42",
      "to": "0xde4a516f29339089c21b79dfd40a7f50d22414c9",
      "contractAddress": null,
      "l1BaseFeeScalar": "0x44d",
      "l1BlobBaseFee": "0x1",
      "l1BlobBaseFeeScalar": "0xa118b",
      "l1Fee": "0x29f912e",
      "l1GasPrice": "0x16697c3",
      "l1GasUsed": "0x6a4"
    },
    {
      "status": "0x1",
      "cumulativeGasUsed": "0xae9c6",
      "logs": [],
      "logsBloom": "0x00000000000000000000000000000000000000000000000000000000000000000000000000000000000000000000000000000000000000000000000000000000000000000000000000000000000000000000000000000000000000000000000000000000000000000000000000000000000000000000000000000000000000000000000000000000000000000000000000000000000000000000000000000000000000000000000000000000000000000000000000000000000000000000000000000000000000000000000000000000000000000000000000000000000000000000000000000000000000000000000000000000000000000000000000000000",
      "type": "0x2",
      "transactionHash": "0x8342f5947a4a285398019bda56fd4d7f1d02e92104b14356aad102f4d79e7959",
      "transactionIndex": "0x4",
      "blockHash": "0xff2c58083770615327f7dab252dff56a585c0a69f37d264fb8ab7f9d45b89211",
      "blockNumber": "0x1a70065",
      "gasUsed": "0xb9b2",
      "effectiveGasPrice": "0xf4368",
      "from": "0x1312c13bdba3edfdd89706fc47653b0ded6c7b42",
      "to": "0xde4a516f29339089c21b79dfd40a7f50d22414c9",
      "contractAddress": null,
      "l1BaseFeeScalar": "0x44d",
      "l1BlobBaseFee": "0x1",
      "l1BlobBaseFeeScalar": "0xa118b",
      "l1Fee": "0x29a486f",
      "l1GasPrice": "0x16697c3",
      "l1GasUsed": "0x697"
    }
  ],
  "libraries": [],
  "pending": [],
  "returns": {},
  "timestamp": 1751211965,
  "chain": 84532,
  "commit": "01f24f0"
}