{
  "transactions": [
    {
      "hash": "0xbe52bb340597e4cbb5e058e37282101204357f3df27f35608132a01422b5243b",
      "transactionType": "CALL",
      "contractName": null,
      "contractAddress": "0x2A922A24A869Df0c745C9cE63B65D093dC57450d",
      "function": "executeRegisterInstitution(address,bool,(address,address,string,bytes,uint256))",
      "arguments": [
        "0x47C51d53D8B03062a308887a5f49ad9Ab0eA9688",
        "true",
        "(0x47C51d53D8B03062a308887a5f49ad9Ab0eA9688, 0x47C51d53D8B03062a308887a5f49ad9Ab0eA9688, abcd, 0x268b22f3fb91ab7def23d58f30634eddaf9042cb6a4a424183f7b4a11c08aac16ecade68ffd57b51ea242a71c8548a2b30fbeac2cdbf03838ce0d465b97388b41b, 1751124541)"
      ],
      "transaction": {
        "from": "0x1312c13BdBa3edFDD89706Fc47653B0ded6C7b42",
        "to": "0x2A922A24A869Df0c745C9cE63B65D093dC57450d",
        "gas": "0x5d59f",
        "value": "0x0",
        "input": "0x5ea29eed00000000000000000000000047c51d53d8b03062a308887a5f49ad9ab0ea96880000000000000000000000000000000000000000000000000000000000000001000000000000000000000000000000000000000000000000000000000000006000000000000000000000000047c51d53d8b03062a308887a5f49ad9ab0ea968800000000000000000000000047c51d53d8b03062a308887a5f49ad9ab0ea968800000000000000000000000000000000000000000000000000000000000000a000000000000000000000000000000000000000000000000000000000000000e00000000000000000000000000000000000000000000000000000000068600a3d000000000000000000000000000000000000000000000000000000000000000461626364000000000000000000000000000000000000000000000000000000000000000000000000000000000000000000000000000000000000000000000041268b22f3fb91ab7def23d58f30634eddaf9042cb6a4a424183f7b4a11c08aac16ecade68ffd57b51ea242a71c8548a2b30fbeac2cdbf03838ce0d465b97388b41b00000000000000000000000000000000000000000000000000000000000000",
        "nonce": "0x2e1",
        "chainId": "0x14a34"
      },
      "additionalContracts": [],
      "isFixedGasLimit": false
    }
  ],
  "receipts": [
    {
      "status": "0x1",
      "cumulativeGasUsed": "0x2b478e",
      "logs": [
        {
          "address": "0x2A922A24A869Df0c745C9cE63B65D093dC57450d",
          "topics": [
            "0x2f8788117e7eff1d82e926ec794901d17c78024a50270940304540a733656f0d",
            "0xa8a8f4780603bbbfdfebdc9931f6249304ac3cdca694b22384be7e118f92c8fd",
            "0x00000000000000000000000047c51d53d8b03062a308887a5f49ad9ab0ea9688",
            "0x0000000000000000000000001312c13bdba3edfdd89706fc47653b0ded6c7b42"
          ],
          "data": "0x",
          "blockHash": "0x70213ad4bd7021e069c47f56324f055fee474ce9e34f46edb81d61d3cc21972f",
          "blockNumber": "0x1a65800",
          "blockTimestamp": "0x68600ee0",
          "transactionHash": "0xbe52bb340597e4cbb5e058e37282101204357f3df27f35608132a01422b5243b",
          "transactionIndex": "0x7",
          "logIndex": "0x32",
          "removed": false
        }
      ],
      "logsBloom": "0x00000004000000000000000000000000000000000000000000000000000008000000000001000000000000000000000000000000000000000000000000000000400000000000000000000000000000000000000000000000000000000000000000000000000000000000000000000000000000000000000000000000000000000000010000000000000000000000000000002000000400000000000000000040000000000000000000000000000000000000000000000000001000000000000000000000000000000000000000000000000000000000000100000000000000000000000000100000008000000000010000000000000000000000040000000001",
      "type": "0x2",
      "transactionHash": "0xbe52bb340597e4cbb5e058e37282101204357f3df27f35608132a01422b5243b",
      "transactionIndex": "0x7",
      "blockHash": "0x70213ad4bd7021e069c47f56324f055fee474ce9e34f46edb81d61d3cc21972f",
      "blockNumber": "0x1a65800",
      "gasUsed": "0x4395c",
      "effectiveGasPrice": "0xf42d2",
      "from": "0x1312c13BdBa3edFDD89706Fc47653B0ded6C7b42",
      "to": "0x2A922A24A869Df0c745C9cE63B65D093dC57450d",
      "contractAddress": null,
      "l1BaseFeeScalar": "0x44d",
      "l1BlobBaseFee": "0x1",
      "l1BlobBaseFeeScalar": "0xa118b",
      "l1Fee": "0x1fef67d",
      "l1GasPrice": "0x975bc9",
      "l1GasUsed": "0xbfa"
    }
  ],
  "libraries": [],
  "pending": [],
  "returns": {},
  "timestamp": 1751125726,
  "chain": 84532,
  "commit": "0414f17"
}