{
  "transactions": [
    {
      "hash": "0xb5ba1075e53c2bfe230f313182f4895235fa9f2b37734733313b3d598f60b33a",
      "transactionType": "CALL",
      "contractName": null,
      "contractAddress": "0x2A922A24A869Df0c745C9cE63B65D093dC57450d",
      "function": "executeRegisterInstitution(address,bool,(address,address,string,bytes,uint256))",
      "arguments": [
        "0x47C51d53D8B03062a308887a5f49ad9Ab0eA9688",
        "true",
        "(0x47C51d53D8B03062a308887a5f49ad9Ab0eA9688, 0x47C51d53D8B03062a308887a5f49ad9Ab0eA9688, HDFC, 0x535e6e573643eaee04ee9556232fabb154f3b70b615ecd5b9687d64d56415eab1d092493991ce23b692f01adf91e11ecf46fed94066397c151b98633467ea93e1c, 1751132243)"
      ],
      "transaction": {
        "from": "0x1312c13BdBa3edFDD89706Fc47653B0ded6C7b42",
        "to": "0x2A922A24A869Df0c745C9cE63B65D093dC57450d",
        "gas": "0x3ce60",
        "value": "0x0",
        "input": "0x5ea29eed00000000000000000000000047c51d53d8b03062a308887a5f49ad9ab0ea96880000000000000000000000000000000000000000000000000000000000000001000000000000000000000000000000000000000000000000000000000000006000000000000000000000000047c51d53d8b03062a308887a5f49ad9ab0ea968800000000000000000000000047c51d53d8b03062a308887a5f49ad9ab0ea968800000000000000000000000000000000000000000000000000000000000000a000000000000000000000000000000000000000000000000000000000000000e00000000000000000000000000000000000000000000000000000000068602853000000000000000000000000000000000000000000000000000000000000000448444643000000000000000000000000000000000000000000000000000000000000000000000000000000000000000000000000000000000000000000000041535e6e573643eaee04ee9556232fabb154f3b70b615ecd5b9687d64d56415eab1d092493991ce23b692f01adf91e11ecf46fed94066397c151b98633467ea93e1c00000000000000000000000000000000000000000000000000000000000000",
        "nonce": "0x2e6",
        "chainId": "0x14a34"
      },
      "additionalContracts": [],
      "isFixedGasLimit": false
    }
  ],
  "receipts": [
    {
      "status": "0x1",
      "cumulativeGasUsed": "0x4e0f30",
      "logs": [],
      "logsBloom": "0x00000000000000000000000000000000000000000000000000000000000000000000000000000000000000000000000000000000000000000000000000000000000000000000000000000000000000000000000000000000000000000000000000000000000000000000000000000000000000000000000000000000000000000000000000000000000000000000000000000000000000000000000000000000000000000000000000000000000000000000000000000000000000000000000000000000000000000000000000000000000000000000000000000000000000000000000000000000000000000000000000000000000000000000000000000000",
      "type": "0x2",
      "transactionHash": "0xb5ba1075e53c2bfe230f313182f4895235fa9f2b37734733313b3d598f60b33a",
      "transactionIndex": "0x12",
      "blockHash": "0x7cb301cd09be2a962dc6023431f2b6ea4bf1e1939c8090afba57c273f6f73777",
      "blockNumber": "0x1a664fa",
      "gasUsed": "0x2c16f",
      "effectiveGasPrice": "0xf430c",
      "from": "0x1312c13BdBa3edFDD89706Fc47653B0ded6C7b42",
      "to": "0x2A922A24A869Df0c745C9cE63B65D093dC57450d",
      "contractAddress": null,
      "l1BaseFeeScalar": "0x44d",
      "l1BlobBaseFee": "0x1",
      "l1BlobBaseFeeScalar": "0xa118b",
      "l1Fee": "0x1e826e8",
      "l1GasPrice": "0x9099f7",
      "l1GasUsed": "0xbfa"
    }
  ],
  "libraries": [],
  "pending": [],
  "returns": {},
  "timestamp": 1751132370,
  "chain": 84532,
  "commit": "0414f17"
}